{
  "contractName": "ElFederal",
  "abi": [
    {
      "inputs": [
        {
          "internalType": "address",
          "name": "tokenEFDAddress_",
          "type": "address"
        },
        {
          "internalType": "address[]",
          "name": "admins_",
          "type": "address[]"
        },
        {
          "internalType": "uint8",
          "name": "required_",
          "type": "uint8"
        }
      ],
      "stateMutability": "nonpayable",
      "type": "constructor"
    },
    {
      "anonymous": false,
      "inputs": [
        {
          "indexed": true,
          "internalType": "address",
          "name": "to",
          "type": "address"
        },
        {
          "indexed": false,
          "internalType": "uint256",
          "name": "value",
          "type": "uint256"
        },
        {
          "indexed": false,
          "internalType": "uint256",
          "name": "count",
          "type": "uint256"
        }
      ],
      "name": "ApprovedSend",
      "type": "event"
    },
    {
      "anonymous": false,
      "inputs": [
        {
          "indexed": true,
          "internalType": "address",
          "name": "_address",
          "type": "address"
        },
        {
          "indexed": true,
          "internalType": "address",
          "name": "_elFederal",
          "type": "address"
        },
        {
          "indexed": true,
          "internalType": "address",
          "name": "_admin",
          "type": "address"
        },
        {
          "indexed": false,
          "internalType": "string",
          "name": "_name",
          "type": "string"
        }
      ],
      "name": "CreateHeadNode",
      "type": "event"
    },
    {
      "anonymous": false,
      "inputs": [
        {
          "indexed": true,
          "internalType": "address",
          "name": "to",
          "type": "address"
        },
        {
          "indexed": false,
          "internalType": "uint256",
          "name": "count",
          "type": "uint256"
        }
      ],
      "name": "RevokedSend",
      "type": "event"
    },
    {
      "anonymous": false,
      "inputs": [
        {
          "indexed": true,
          "internalType": "bytes32",
          "name": "role",
          "type": "bytes32"
        },
        {
          "indexed": true,
          "internalType": "bytes32",
          "name": "previousAdminRole",
          "type": "bytes32"
        },
        {
          "indexed": true,
          "internalType": "bytes32",
          "name": "newAdminRole",
          "type": "bytes32"
        }
      ],
      "name": "RoleAdminChanged",
      "type": "event"
    },
    {
      "anonymous": false,
      "inputs": [
        {
          "indexed": true,
          "internalType": "bytes32",
          "name": "role",
          "type": "bytes32"
        },
        {
          "indexed": true,
          "internalType": "address",
          "name": "account",
          "type": "address"
        },
        {
          "indexed": true,
          "internalType": "address",
          "name": "sender",
          "type": "address"
        }
      ],
      "name": "RoleGranted",
      "type": "event"
    },
    {
      "anonymous": false,
      "inputs": [
        {
          "indexed": true,
          "internalType": "bytes32",
          "name": "role",
          "type": "bytes32"
        },
        {
          "indexed": true,
          "internalType": "address",
          "name": "account",
          "type": "address"
        },
        {
          "indexed": true,
          "internalType": "address",
          "name": "sender",
          "type": "address"
        }
      ],
      "name": "RoleRevoked",
      "type": "event"
    },
    {
      "inputs": [],
      "name": "ADMIN_ROLE",
      "outputs": [
        {
          "internalType": "bytes32",
          "name": "",
          "type": "bytes32"
        }
      ],
      "stateMutability": "view",
      "type": "function",
      "constant": true
    },
    {
      "inputs": [],
      "name": "DEFAULT_ADMIN_ROLE",
      "outputs": [
        {
          "internalType": "bytes32",
          "name": "",
          "type": "bytes32"
        }
      ],
      "stateMutability": "view",
      "type": "function",
      "constant": true
    },
    {
      "inputs": [],
      "name": "FEDERAL_ADMIN_ROLE",
      "outputs": [
        {
          "internalType": "bytes32",
          "name": "",
          "type": "bytes32"
        }
      ],
      "stateMutability": "view",
      "type": "function",
      "constant": true
    },
    {
      "inputs": [
        {
          "internalType": "address",
          "name": "",
          "type": "address"
        },
        {
          "internalType": "uint256",
          "name": "",
          "type": "uint256"
        }
      ],
      "name": "approvedBy",
      "outputs": [
        {
          "internalType": "address",
          "name": "",
          "type": "address"
        }
      ],
      "stateMutability": "view",
      "type": "function",
      "constant": true
    },
    {
      "inputs": [
        {
          "internalType": "address",
          "name": "",
          "type": "address"
        }
      ],
      "name": "approvedValue",
      "outputs": [
        {
          "internalType": "uint256",
          "name": "",
          "type": "uint256"
        }
      ],
      "stateMutability": "view",
      "type": "function",
      "constant": true
    },
    {
      "inputs": [
        {
          "internalType": "bytes32",
          "name": "role",
          "type": "bytes32"
        }
      ],
      "name": "getRoleAdmin",
      "outputs": [
        {
          "internalType": "bytes32",
          "name": "",
          "type": "bytes32"
        }
      ],
      "stateMutability": "view",
      "type": "function",
      "constant": true
    },
    {
      "inputs": [
        {
          "internalType": "bytes32",
          "name": "role",
          "type": "bytes32"
        },
        {
          "internalType": "uint256",
          "name": "index",
          "type": "uint256"
        }
      ],
      "name": "getRoleMember",
      "outputs": [
        {
          "internalType": "address",
          "name": "",
          "type": "address"
        }
      ],
      "stateMutability": "view",
      "type": "function",
      "constant": true
    },
    {
      "inputs": [
        {
          "internalType": "bytes32",
          "name": "role",
          "type": "bytes32"
        }
      ],
      "name": "getRoleMemberCount",
      "outputs": [
        {
          "internalType": "uint256",
          "name": "",
          "type": "uint256"
        }
      ],
      "stateMutability": "view",
      "type": "function",
      "constant": true
    },
    {
      "inputs": [
        {
          "internalType": "bytes32",
          "name": "role",
          "type": "bytes32"
        },
        {
          "internalType": "address",
          "name": "account",
          "type": "address"
        }
      ],
      "name": "grantRole",
      "outputs": [],
      "stateMutability": "nonpayable",
      "type": "function"
    },
    {
      "inputs": [
        {
          "internalType": "bytes32",
          "name": "role",
          "type": "bytes32"
        },
        {
          "internalType": "address",
          "name": "account",
          "type": "address"
        }
      ],
      "name": "hasRole",
      "outputs": [
        {
          "internalType": "bool",
          "name": "",
          "type": "bool"
        }
      ],
      "stateMutability": "view",
      "type": "function",
      "constant": true
    },
    {
      "inputs": [
        {
          "internalType": "uint256",
          "name": "",
          "type": "uint256"
        }
      ],
      "name": "headNodes",
      "outputs": [
        {
          "internalType": "address",
          "name": "",
          "type": "address"
        }
      ],
      "stateMutability": "view",
      "type": "function",
      "constant": true
    },
    {
      "inputs": [
        {
          "internalType": "address",
          "name": "",
          "type": "address"
        }
      ],
      "name": "isHeadNode",
      "outputs": [
        {
          "internalType": "bool",
          "name": "",
          "type": "bool"
        }
      ],
      "stateMutability": "view",
      "type": "function",
      "constant": true
    },
    {
      "inputs": [
        {
          "internalType": "bytes32",
          "name": "role",
          "type": "bytes32"
        },
        {
          "internalType": "address",
          "name": "account",
          "type": "address"
        }
      ],
      "name": "renounceRole",
      "outputs": [],
      "stateMutability": "nonpayable",
      "type": "function"
    },
    {
      "inputs": [],
      "name": "required",
      "outputs": [
        {
          "internalType": "uint8",
          "name": "",
          "type": "uint8"
        }
      ],
      "stateMutability": "view",
      "type": "function",
      "constant": true
    },
    {
      "inputs": [
        {
          "internalType": "bytes32",
          "name": "role",
          "type": "bytes32"
        },
        {
          "internalType": "address",
          "name": "account",
          "type": "address"
        }
      ],
      "name": "revokeRole",
      "outputs": [],
      "stateMutability": "nonpayable",
      "type": "function"
    },
    {
      "inputs": [],
      "name": "tokenEFD",
      "outputs": [
        {
          "internalType": "contract IERC20",
          "name": "",
          "type": "address"
        }
      ],
      "stateMutability": "view",
      "type": "function",
      "constant": true
    },
    {
      "inputs": [
        {
          "internalType": "address",
          "name": "admin_",
          "type": "address"
        },
        {
          "internalType": "string",
          "name": "name_",
          "type": "string"
        }
      ],
      "name": "createHeadNode",
      "outputs": [
        {
          "internalType": "address",
          "name": "",
          "type": "address"
        }
      ],
      "stateMutability": "nonpayable",
      "type": "function"
    },
    {
      "inputs": [],
      "name": "listHeadNodes",
      "outputs": [
        {
          "internalType": "address[]",
          "name": "",
          "type": "address[]"
        }
      ],
      "stateMutability": "view",
      "type": "function",
      "constant": true
    },
    {
      "inputs": [
        {
          "internalType": "address",
          "name": "_node",
          "type": "address"
        },
        {
          "internalType": "address",
          "name": "_admin",
          "type": "address"
        }
      ],
      "name": "addAdminNode",
      "outputs": [
        {
          "internalType": "bool",
          "name": "",
          "type": "bool"
        }
      ],
      "stateMutability": "nonpayable",
      "type": "function"
    },
    {
      "inputs": [
        {
          "internalType": "address",
          "name": "_node",
          "type": "address"
        },
        {
          "internalType": "address",
          "name": "_admin",
          "type": "address"
        }
      ],
      "name": "removeAdminNode",
      "outputs": [
        {
          "internalType": "bool",
          "name": "",
          "type": "bool"
        }
      ],
      "stateMutability": "nonpayable",
      "type": "function"
    },
    {
      "inputs": [
        {
          "internalType": "address",
          "name": "_address",
          "type": "address"
        }
      ],
      "name": "getApprove",
      "outputs": [
        {
          "internalType": "uint256",
          "name": "",
          "type": "uint256"
        },
        {
          "internalType": "uint256",
          "name": "",
          "type": "uint256"
        }
      ],
      "stateMutability": "view",
      "type": "function",
      "constant": true
    },
    {
      "inputs": [
        {
          "internalType": "address",
          "name": "_to",
          "type": "address"
        },
        {
          "internalType": "uint256",
          "name": "_value",
          "type": "uint256"
        }
      ],
      "name": "approve",
      "outputs": [],
      "stateMutability": "nonpayable",
      "type": "function"
    },
    {
      "inputs": [
        {
          "internalType": "address",
          "name": "_to",
          "type": "address"
        }
      ],
      "name": "revoke",
      "outputs": [],
      "stateMutability": "nonpayable",
      "type": "function"
    },
    {
      "inputs": [
        {
          "internalType": "address",
          "name": "_to",
          "type": "address"
        },
        {
          "internalType": "uint256",
          "name": "_value",
          "type": "uint256"
        }
      ],
      "name": "send",
      "outputs": [
        {
          "internalType": "bool",
          "name": "",
          "type": "bool"
        }
      ],
      "stateMutability": "nonpayable",
      "type": "function"
    }
  ],
  "bytecode": "0x60806040523480156200001157600080fd5b5060405162005e0838038062005e08833981810160405260608110156200003757600080fd5b8101908080519060200190929190805160405193929190846401000000008211156200006257600080fd5b838201915060208201858111156200007957600080fd5b82518660208202830111640100000000821117156200009757600080fd5b8083526020830192505050908051906020019060200280838360005b83811015620000d0578082015181840152602081019050620000b3565b505050509050016040526020018051906020019092919050505082600160006101000a81548173ffffffffffffffffffffffffffffffffffffffff021916908373ffffffffffffffffffffffffffffffffffffffff16021790555080600460006101000a81548160ff021916908360ff1602179055506200015b6000801b33620001c660201b60201c565b60005b8251811015620001bc57620001ae7fee3430063171288c09a35b8d8d7392125251d3761140e3c9e7d9b0d51e0c504f8483815181106200019a57fe5b6020026020010151620001c660201b60201c565b80806001019150506200015e565b505050506200035c565b620001d88282620001dc60201b60201c565b5050565b6200020a816000808581526020019081526020016000206000016200027f60201b620020621790919060201c565b156200027b5762000220620002b760201b60201c565b73ffffffffffffffffffffffffffffffffffffffff168173ffffffffffffffffffffffffffffffffffffffff16837f2f8788117e7eff1d82e926ec794901d17c78024a50270940304540a733656f0d60405160405180910390a45b5050565b6000620002af836000018373ffffffffffffffffffffffffffffffffffffffff1660001b620002bf60201b60201c565b905092915050565b600033905090565b6000620002d383836200033960201b60201c565b6200032e57826000018290806001815401808255809150506001900390600052602060002001600090919091909150558260000180549050836001016000848152602001908152602001600020819055506001905062000333565b600090505b92915050565b600080836001016000848152602001908152602001600020541415905092915050565b615a9c806200036c6000396000f3fe60806040523480156200001157600080fd5b5060043610620001785760003560e01c80638e7e48ed11620000d5578063b135dd061162000087578063b135dd0614620007f7578063ca15c8731462000854578063d0679d341462000899578063d547741f1462000900578063d8a4be2c1462000951578063dc8452cd14620009b35762000178565b80638e7e48ed14620005085780639010d07c146200058557806391d1485414620005ea57806395c876d71462000651578063a217fddf146200075c578063a7733fa7146200077c5762000178565b80634c9de966116200012f5780634c9de966146200038d57806362239cde14620003ad57806374a8f10314620003e357806375b238fc146200042a578063838d333e146200044a578063847203c814620004ad5762000178565b8063095ea7b3146200017d57806317d514e414620001ce578063248a9ca314620002295780632f2ff15d146200026e57806336568abe14620002bf5780634880bb421462000310575b600080fd5b620001cc600480360360408110156200019557600080fd5b81019080803573ffffffffffffffffffffffffffffffffffffffff16906020019092919080359060200190929190505050620009d6565b005b6200021360048036036020811015620001e657600080fd5b81019080803573ffffffffffffffffffffffffffffffffffffffff16906020019092919050505062000ef1565b6040518082815260200191505060405180910390f35b62000258600480360360208110156200024157600080fd5b810190808035906020019092919050505062000f09565b6040518082815260200191505060405180910390f35b620002bd600480360360408110156200028657600080fd5b8101908080359060200190929190803573ffffffffffffffffffffffffffffffffffffffff16906020019092919050505062000f28565b005b6200030e60048036036040811015620002d757600080fd5b8101908080359060200190929190803573ffffffffffffffffffffffffffffffffffffffff16906020019092919050505062000fb9565b005b62000375600480360360408110156200032857600080fd5b81019080803573ffffffffffffffffffffffffffffffffffffffff169060200190929190803573ffffffffffffffffffffffffffffffffffffffff16906020019092919050505062001058565b60405180821515815260200191505060405180910390f35b6200039762001114565b6040518082815260200191505060405180910390f35b620003b762001138565b604051808273ffffffffffffffffffffffffffffffffffffffff16815260200191505060405180910390f35b6200042860048036036020811015620003fb57600080fd5b81019080803573ffffffffffffffffffffffffffffffffffffffff1690602001909291905050506200115e565b005b6200043462001681565b6040518082815260200191505060405180910390f35b62000454620016a5565b6040518080602001828103825283818151815260200191508051906020019060200280838360005b83811015620004995780820151818401526020810190506200047c565b505050509050019250505060405180910390f35b620004dc60048036036020811015620004c557600080fd5b810190808035906020019092919050505062001735565b604051808273ffffffffffffffffffffffffffffffffffffffff16815260200191505060405180910390f35b6200056d600480360360408110156200052057600080fd5b81019080803573ffffffffffffffffffffffffffffffffffffffff169060200190929190803573ffffffffffffffffffffffffffffffffffffffff16906020019092919050505062001775565b60405180821515815260200191505060405180910390f35b620005be600480360360408110156200059d57600080fd5b81019080803590602001909291908035906020019092919050505062001831565b604051808273ffffffffffffffffffffffffffffffffffffffff16815260200191505060405180910390f35b62000639600480360360408110156200060257600080fd5b8101908080359060200190929190803573ffffffffffffffffffffffffffffffffffffffff16906020019092919050505062001864565b60405180821515815260200191505060405180910390f35b62000730600480360360408110156200066957600080fd5b81019080803573ffffffffffffffffffffffffffffffffffffffff16906020019092919080359060200190640100000000811115620006a757600080fd5b820183602082011115620006ba57600080fd5b80359060200191846001830284011164010000000083111715620006dd57600080fd5b91908080601f016020809104026020016040519081016040528093929190818152602001838380828437600081840152601f19601f82011690508083019250505050505050919291929050505062001897565b604051808273ffffffffffffffffffffffffffffffffffffffff16815260200191505060405180910390f35b6200076662001be2565b6040518082815260200191505060405180910390f35b620007cb600480360360408110156200079457600080fd5b81019080803573ffffffffffffffffffffffffffffffffffffffff1690602001909291908035906020019092919050505062001be9565b604051808273ffffffffffffffffffffffffffffffffffffffff16815260200191505060405180910390f35b6200083c600480360360208110156200080f57600080fd5b81019080803573ffffffffffffffffffffffffffffffffffffffff16906020019092919050505062001c38565b60405180821515815260200191505060405180910390f35b62000883600480360360208110156200086c57600080fd5b810190808035906020019092919050505062001c58565b6040518082815260200191505060405180910390f35b620008e860048036036040811015620008b157600080fd5b81019080803573ffffffffffffffffffffffffffffffffffffffff1690602001909291908035906020019092919050505062001c80565b60405180821515815260200191505060405180910390f35b6200094f600480360360408110156200091857600080fd5b8101908080359060200190929190803573ffffffffffffffffffffffffffffffffffffffff16906020019092919050505062001f2f565b005b62000996600480360360208110156200096957600080fd5b81019080803573ffffffffffffffffffffffffffffffffffffffff16906020019092919050505062001fc0565b604051808381526020018281526020019250505060405180910390f35b620009bd6200204f565b604051808260ff16815260200191505060405180910390f35b816000805b600660008473ffffffffffffffffffffffffffffffffffffffff1673ffffffffffffffffffffffffffffffffffffffff1681526020019081526020016000208054905081101562000ae3573373ffffffffffffffffffffffffffffffffffffffff16600660008573ffffffffffffffffffffffffffffffffffffffff1673ffffffffffffffffffffffffffffffffffffffff168152602001908152602001600020828154811062000a8857fe5b9060005260206000200160009054906101000a900473ffffffffffffffffffffffffffffffffffffffff1673ffffffffffffffffffffffffffffffffffffffff16141562000ad557600191505b8080600101915050620009db565b50801562000b59576040517f08c379a00000000000000000000000000000000000000000000000000000000081526004018080602001828103825260108152602001807f616c726561647920617070726f7665640000000000000000000000000000000081525060200191505060405180910390fd5b62000b857fee3430063171288c09a35b8d8d7392125251d3761140e3c9e7d9b0d51e0c504f3362001864565b62000bf8576040517f08c379a000000000000000000000000000000000000000000000000000000000815260040180806020018281038252601b8152602001807f43616c6c6572206973206e6f74204665646572616c2061646d696e000000000081525060200191505060405180910390fd5b6000600560008673ffffffffffffffffffffffffffffffffffffffff1673ffffffffffffffffffffffffffffffffffffffff168152602001908152602001600020541462000cfb5782600560008673ffffffffffffffffffffffffffffffffffffffff1673ffffffffffffffffffffffffffffffffffffffff168152602001908152602001600020541462000cf5576040517f08c379a000000000000000000000000000000000000000000000000000000000815260040180806020018281038252600f8152602001807f646966666572656e742076616c7565000000000000000000000000000000000081525060200191505060405180910390fd5b62000d3e565b82600560008673ffffffffffffffffffffffffffffffffffffffff1673ffffffffffffffffffffffffffffffffffffffff16815260200190815260200160002050505b600660008573ffffffffffffffffffffffffffffffffffffffff1673ffffffffffffffffffffffffffffffffffffffff168152602001908152602001600020339080600181540180825580915050600190039060005260206000200160009091909190916101000a81548173ffffffffffffffffffffffffffffffffffffffff021916908373ffffffffffffffffffffffffffffffffffffffff1602179055508373ffffffffffffffffffffffffffffffffffffffff167ff8a16622214cfd335ed1e87069bb2c7baa9aaf1ffdd9eb64b01872556354cfb284600660008873ffffffffffffffffffffffffffffffffffffffff1673ffffffffffffffffffffffffffffffffffffffff16815260200190815260200160002080549050604051808381526020018281526020019250505060405180910390a2600460009054906101000a900460ff1660ff16600660008673ffffffffffffffffffffffffffffffffffffffff1673ffffffffffffffffffffffffffffffffffffffff168152602001908152602001600020805490501062000eeb5762000ede848462001c80565b5062000eea8462002094565b5b50505050565b60056020528060005260406000206000915090505481565b6000806000838152602001908152602001600020600201549050919050565b62000f526000808481526020019081526020016000206002015462000f4c62002129565b62001864565b62000fa9576040517f08c379a000000000000000000000000000000000000000000000000000000000815260040180806020018281038252602f815260200180620059d9602f913960400191505060405180910390fd5b62000fb5828262002131565b5050565b62000fc362002129565b73ffffffffffffffffffffffffffffffffffffffff168173ffffffffffffffffffffffffffffffffffffffff161462001048576040517f08c379a000000000000000000000000000000000000000000000000000000000815260040180806020018281038252602f81526020018062005a38602f913960400191505060405180910390fd5b620010548282620021c9565b5050565b6000808390508073ffffffffffffffffffffffffffffffffffffffff16632f2ff15d7fa49807205ce4d355092ef5a8a18f56e8913cf4a201fbe287825b095693c21775856040518363ffffffff1660e01b8152600401808381526020018273ffffffffffffffffffffffffffffffffffffffff16815260200192505050600060405180830381600087803b158015620010f057600080fd5b505af115801562001105573d6000803e3d6000fd5b50505050600191505092915050565b7fee3430063171288c09a35b8d8d7392125251d3761140e3c9e7d9b0d51e0c504f81565b600160009054906101000a900473ffffffffffffffffffffffffffffffffffffffff1681565b6200118a7fee3430063171288c09a35b8d8d7392125251d3761140e3c9e7d9b0d51e0c504f3362001864565b620011fd576040517f08c379a000000000000000000000000000000000000000000000000000000000815260040180806020018281038252601b8152602001807f43616c6c6572206973206e6f74204665646572616c2061646d696e000000000081525060200191505060405180910390fd5b60008060005b600660008573ffffffffffffffffffffffffffffffffffffffff1673ffffffffffffffffffffffffffffffffffffffff1681526020019081526020016000208054905081101562001313573373ffffffffffffffffffffffffffffffffffffffff16600660008673ffffffffffffffffffffffffffffffffffffffff1673ffffffffffffffffffffffffffffffffffffffff1681526020019081526020016000208281548110620012b057fe5b9060005260206000200160009054906101000a900473ffffffffffffffffffffffffffffffffffffffff1673ffffffffffffffffffffffffffffffffffffffff16141562001305578092506001915062001313565b808060010191505062001203565b508062001388576040517f08c379a000000000000000000000000000000000000000000000000000000000815260040180806020018281038252600c8152602001807f6e6f7420617070726f766564000000000000000000000000000000000000000081525060200191505060405180910390fd5b6000600660008573ffffffffffffffffffffffffffffffffffffffff1673ffffffffffffffffffffffffffffffffffffffff1681526020019081526020016000206001600660008773ffffffffffffffffffffffffffffffffffffffff1673ffffffffffffffffffffffffffffffffffffffff1681526020019081526020016000208054905003815481106200141a57fe5b9060005260206000200160009054906101000a900473ffffffffffffffffffffffffffffffffffffffff16905080600660008673ffffffffffffffffffffffffffffffffffffffff1673ffffffffffffffffffffffffffffffffffffffff16815260200190815260200160002084815481106200149357fe5b9060005260206000200160006101000a81548173ffffffffffffffffffffffffffffffffffffffff021916908373ffffffffffffffffffffffffffffffffffffffff160217905550600660008573ffffffffffffffffffffffffffffffffffffffff1673ffffffffffffffffffffffffffffffffffffffff1681526020019081526020016000208054806200152457fe5b6001900381819060005260206000200160006101000a81549073ffffffffffffffffffffffffffffffffffffffff021916905590556000600660008673ffffffffffffffffffffffffffffffffffffffff1673ffffffffffffffffffffffffffffffffffffffff168152602001908152602001600020805490501415620015eb576000600560008673ffffffffffffffffffffffffffffffffffffffff1673ffffffffffffffffffffffffffffffffffffffff168152602001908152602001600020819055505b8373ffffffffffffffffffffffffffffffffffffffff167f801068ec6f05f57474574a5480e95b50008cd21f2119785839f58eba30cfa716600660008773ffffffffffffffffffffffffffffffffffffffff1673ffffffffffffffffffffffffffffffffffffffff168152602001908152602001600020805490506040518082815260200191505060405180910390a250505050565b7fa49807205ce4d355092ef5a8a18f56e8913cf4a201fbe287825b095693c2177581565b606060028054806020026020016040519081016040528092919081815260200182805480156200172b57602002820191906000526020600020905b8160009054906101000a900473ffffffffffffffffffffffffffffffffffffffff1673ffffffffffffffffffffffffffffffffffffffff1681526020019060010190808311620016e0575b5050505050905090565b600281815481106200174657600080fd5b906000526020600020016000915054906101000a900473ffffffffffffffffffffffffffffffffffffffff1681565b6000808390508073ffffffffffffffffffffffffffffffffffffffff1663d547741f7fa49807205ce4d355092ef5a8a18f56e8913cf4a201fbe287825b095693c21775856040518363ffffffff1660e01b8152600401808381526020018273ffffffffffffffffffffffffffffffffffffffff16815260200192505050600060405180830381600087803b1580156200180d57600080fd5b505af115801562001822573d6000803e3d6000fd5b50505050600191505092915050565b60006200185c826000808681526020019081526020016000206000016200226190919063ffffffff16565b905092915050565b60006200188f826000808681526020019081526020016000206000016200227d90919063ffffffff16565b905092915050565b6000620018c57fee3430063171288c09a35b8d8d7392125251d3761140e3c9e7d9b0d51e0c504f3362001864565b62001938576040517f08c379a000000000000000000000000000000000000000000000000000000000815260040180806020018281038252601b8152602001807f43616c6c6572206973206e6f74204665646572616c2061646d696e000000000081525060200191505060405180910390fd5b6000600160009054906101000a900473ffffffffffffffffffffffffffffffffffffffff1684846040516200196d9062002513565b808473ffffffffffffffffffffffffffffffffffffffff1681526020018373ffffffffffffffffffffffffffffffffffffffff16815260200180602001828103825283818151815260200191508051906020019080838360005b83811015620019e4578082015181840152602081019050620019c7565b50505050905090810190601f16801562001a125780820380516001836020036101000a031916815260200191505b50945050505050604051809103906000f08015801562001a36573d6000803e3d6000fd5b5090506002819080600181540180825580915050600190039060005260206000200160009091909190916101000a81548173ffffffffffffffffffffffffffffffffffffffff021916908373ffffffffffffffffffffffffffffffffffffffff1602179055506001600360008373ffffffffffffffffffffffffffffffffffffffff1673ffffffffffffffffffffffffffffffffffffffff16815260200190815260200160002060006101000a81548160ff0219169083151502179055508373ffffffffffffffffffffffffffffffffffffffff163073ffffffffffffffffffffffffffffffffffffffff168273ffffffffffffffffffffffffffffffffffffffff167f45c2aa690c45897b895618dd5dec03a4ba8bbb106ecb5effb994d324f8e2517c866040518080602001828103825283818151815260200191508051906020019080838360005b8381101562001b9d57808201518184015260208101905062001b80565b50505050905090810190601f16801562001bcb5780820380516001836020036101000a031916815260200191505b509250505060405180910390a48091505092915050565b6000801b81565b6006602052816000526040600020818154811062001c0657600080fd5b906000526020600020016000915091509054906101000a900473ffffffffffffffffffffffffffffffffffffffff1681565b60036020528060005260406000206000915054906101000a900460ff1681565b600062001c79600080848152602001908152602001600020600001620022af565b9050919050565b600062001cae7fee3430063171288c09a35b8d8d7392125251d3761140e3c9e7d9b0d51e0c504f3362001864565b62001d21576040517f08c379a000000000000000000000000000000000000000000000000000000000815260040180806020018281038252601b8152602001807f43616c6c6572206973206e6f74204665646572616c2061646d696e000000000081525060200191505060405180910390fd5b600360008473ffffffffffffffffffffffffffffffffffffffff1673ffffffffffffffffffffffffffffffffffffffff16815260200190815260200160002060009054906101000a900460ff1662001de1576040517f08c379a00000000000000000000000000000000000000000000000000000000081526004018080602001828103825260148152602001807f546f206973206e6f74206120486561644e6f646500000000000000000000000081525060200191505060405180910390fd5b600160009054906101000a900473ffffffffffffffffffffffffffffffffffffffff1673ffffffffffffffffffffffffffffffffffffffff1663a9059cbb84846040518363ffffffff1660e01b8152600401808373ffffffffffffffffffffffffffffffffffffffff16815260200182815260200192505050602060405180830381600087803b15801562001e7557600080fd5b505af115801562001e8a573d6000803e3d6000fd5b505050506040513d602081101562001ea157600080fd5b810190808051906020019092919050505062001f25576040517f08c379a000000000000000000000000000000000000000000000000000000000815260040180806020018281038252600d8152602001807f6572726f722073656e64696e670000000000000000000000000000000000000081525060200191505060405180910390fd5b6001905092915050565b62001f596000808481526020019081526020016000206002015462001f5362002129565b62001864565b62001fb0576040517f08c379a000000000000000000000000000000000000000000000000000000000815260040180806020018281038252603081526020018062005a086030913960400191505060405180910390fd5b62001fbc8282620021c9565b5050565b600080600560008473ffffffffffffffffffffffffffffffffffffffff1673ffffffffffffffffffffffffffffffffffffffff16815260200190815260200160002054600660008573ffffffffffffffffffffffffffffffffffffffff1673ffffffffffffffffffffffffffffffffffffffff1681526020019081526020016000208054905091509150915091565b600460009054906101000a900460ff1681565b60006200208c836000018373ffffffffffffffffffffffffffffffffffffffff1660001b620022c6565b905092915050565b6000600560008373ffffffffffffffffffffffffffffffffffffffff1673ffffffffffffffffffffffffffffffffffffffff16815260200190815260200160002081905550600660008273ffffffffffffffffffffffffffffffffffffffff1673ffffffffffffffffffffffffffffffffffffffff168152602001908152602001600020600062002126919062002521565b50565b600033905090565b6200215a816000808581526020019081526020016000206000016200206290919063ffffffff16565b15620021c5576200216a62002129565b73ffffffffffffffffffffffffffffffffffffffff168173ffffffffffffffffffffffffffffffffffffffff16837f2f8788117e7eff1d82e926ec794901d17c78024a50270940304540a733656f0d60405160405180910390a45b5050565b620021f2816000808581526020019081526020016000206000016200233a90919063ffffffff16565b156200225d576200220262002129565b73ffffffffffffffffffffffffffffffffffffffff168173ffffffffffffffffffffffffffffffffffffffff16837ff6391f5c32d9c69d2a47ea670b442974b53935d1edc7fd64eb21e047a839171b60405160405180910390a45b5050565b60006200227283600001836200236c565b60001c905092915050565b6000620022a7836000018373ffffffffffffffffffffffffffffffffffffffff1660001b620023f2565b905092915050565b6000620022bf8260000162002415565b9050919050565b6000620022d48383620023f2565b6200232f57826000018290806001815401808255809150506001900390600052602060002001600090919091909150558260000180549050836001016000848152602001908152602001600020819055506001905062002334565b600090505b92915050565b600062002364836000018373ffffffffffffffffffffffffffffffffffffffff1660001b62002426565b905092915050565b600081836000018054905011620023cf576040517f08c379a0000000000000000000000000000000000000000000000000000000008152600401808060200182810382526022815260200180620059b76022913960400191505060405180910390fd5b826000018281548110620023df57fe5b9060005260206000200154905092915050565b600080836001016000848152602001908152602001600020541415905092915050565b600081600001805490509050919050565b600080836001016000848152602001908152602001600020549050600081146200250757600060018203905060006001866000018054905003905060008660000182815481106200247357fe5b90600052602060002001549050808760000184815481106200249157fe5b9060005260206000200181905550600183018760010160008381526020019081526020016000208190555086600001805480620024ca57fe5b600190038181906000526020600020016000905590558660010160008781526020019081526020016000206000905560019450505050506200250d565b60009150505b92915050565b613453806200256483390190565b508054600082559060005260206000209081019062002541919062002544565b50565b5b808211156200255f57600081600090555060010162002545565b509056fe60806040523480156200001157600080fd5b506040516200345338038062003453833981810160405260608110156200003757600080fd5b810190808051906020019092919080519060200190929190805160405193929190846401000000008211156200006c57600080fd5b838201915060208201858111156200008357600080fd5b8251866001820283011164010000000082111715620000a157600080fd5b8083526020830192505050908051906020019080838360005b83811015620000d7578082015181840152602081019050620000ba565b50505050905090810190601f168015620001055780820380516001836020036101000a031916815260200191505b506040525050508060049080519060200190620001249291906200038d565b5082600360006101000a81548173ffffffffffffffffffffffffffffffffffffffff021916908373ffffffffffffffffffffffffffffffffffffffff16021790555033600560006101000a81548173ffffffffffffffffffffffffffffffffffffffff021916908373ffffffffffffffffffffffffffffffffffffffff160217905550620001d97fa49807205ce4d355092ef5a8a18f56e8913cf4a201fbe287825b095693c2177583620001f760201b60201c565b620001ee6000801b33620001f760201b60201c565b50505062000443565b6200020982826200020d60201b60201c565b5050565b6200023b81600080858152602001908152602001600020600001620002b060201b620015301790919060201c565b15620002ac5762000251620002e860201b60201c565b73ffffffffffffffffffffffffffffffffffffffff168173ffffffffffffffffffffffffffffffffffffffff16837f2f8788117e7eff1d82e926ec794901d17c78024a50270940304540a733656f0d60405160405180910390a45b5050565b6000620002e0836000018373ffffffffffffffffffffffffffffffffffffffff1660001b620002f060201b60201c565b905092915050565b600033905090565b60006200030483836200036a60201b60201c565b6200035f57826000018290806001815401808255809150506001900390600052602060002001600090919091909150558260000180549050836001016000848152602001908152602001600020819055506001905062000364565b600090505b92915050565b600080836001016000848152602001908152602001600020541415905092915050565b828054600181600116156101000203166002900490600052602060002090601f016020900481019282620003c5576000855562000411565b82601f10620003e057805160ff191683800117855562000411565b8280016001018555821562000411579182015b8281111562000410578251825591602001919060010190620003f3565b5b50905062000420919062000424565b5090565b5b808211156200043f57600081600090555060010162000425565b5090565b61300080620004536000396000f3fe60806040523480156200001157600080fd5b5060043610620001485760003560e01c806362239cde11620000bd5780639e1a4d19116200007b5780639e1a4d191462000734578063a217fddf1462000754578063ca15c8731462000774578063d0679d3414620007b9578063d547741f14620008205762000148565b806362239cde146200059557806375b238fc14620005cb5780638e7e48ed14620005eb5780639010d07c146200066857806391d1485414620006cd5762000148565b80632f2ff15d116200010b5780632f2ff15d14620003dd57806336568abe146200042e57806346c198f6146200047f5780634880bb4214620004b557806356c0a3df14620005325762000148565b806301750152146200014d57806306fdde0314620001aa57806312b8603f14620002325780631c53c280146200033d578063248a9ca31462000398575b600080fd5b62000192600480360360208110156200016557600080fd5b81019080803573ffffffffffffffffffffffffffffffffffffffff16906020019092919050505062000871565b60405180821515815260200191505060405180910390f35b620001b462000891565b6040518080602001828103825283818151815260200191508051906020019080838360005b83811015620001f6578082015181840152602081019050620001d9565b50505050905090810190601f168015620002245780820380516001836020036101000a031916815260200191505b509250505060405180910390f35b62000311600480360360408110156200024a57600080fd5b81019080803573ffffffffffffffffffffffffffffffffffffffff169060200190929190803590602001906401000000008111156200028857600080fd5b8201836020820111156200029b57600080fd5b80359060200191846001830284011164010000000083111715620002be57600080fd5b91908080601f016020809104026020016040519081016040528093929190818152602001838380828437600081840152601f19601f82011690508083019250505050505050919291929050505062000937565b604051808273ffffffffffffffffffffffffffffffffffffffff16815260200191505060405180910390f35b6200036c600480360360208110156200035557600080fd5b810190808035906020019092919050505062000c82565b604051808273ffffffffffffffffffffffffffffffffffffffff16815260200191505060405180910390f35b620003c760048036036020811015620003b057600080fd5b810190808035906020019092919050505062000cc2565b6040518082815260200191505060405180910390f35b6200042c60048036036040811015620003f557600080fd5b8101908080359060200190929190803573ffffffffffffffffffffffffffffffffffffffff16906020019092919050505062000ce1565b005b6200047d600480360360408110156200044657600080fd5b8101908080359060200190929190803573ffffffffffffffffffffffffffffffffffffffff16906020019092919050505062000d72565b005b6200048962000e11565b604051808273ffffffffffffffffffffffffffffffffffffffff16815260200191505060405180910390f35b6200051a60048036036040811015620004cd57600080fd5b81019080803573ffffffffffffffffffffffffffffffffffffffff169060200190929190803573ffffffffffffffffffffffffffffffffffffffff16906020019092919050505062000e3b565b60405180821515815260200191505060405180910390f35b6200053c62000ef7565b6040518080602001828103825283818151815260200191508051906020019060200280838360005b838110156200058157808201518184015260208101905062000564565b505050509050019250505060405180910390f35b6200059f62000f87565b604051808273ffffffffffffffffffffffffffffffffffffffff16815260200191505060405180910390f35b620005d562000fad565b6040518082815260200191505060405180910390f35b62000650600480360360408110156200060357600080fd5b81019080803573ffffffffffffffffffffffffffffffffffffffff169060200190929190803573ffffffffffffffffffffffffffffffffffffffff16906020019092919050505062000fd1565b60405180821515815260200191505060405180910390f35b620006a1600480360360408110156200068057600080fd5b8101908080359060200190929190803590602001909291905050506200108d565b604051808273ffffffffffffffffffffffffffffffffffffffff16815260200191505060405180910390f35b6200071c60048036036040811015620006e557600080fd5b8101908080359060200190929190803573ffffffffffffffffffffffffffffffffffffffff169060200190929190505050620010c0565b60405180821515815260200191505060405180910390f35b6200073e620010f3565b6040518082815260200191505060405180910390f35b6200075e620011c1565b6040518082815260200191505060405180910390f35b620007a3600480360360208110156200078c57600080fd5b8101908080359060200190929190505050620011c8565b6040518082815260200191505060405180910390f35b6200080860048036036040811015620007d157600080fd5b81019080803573ffffffffffffffffffffffffffffffffffffffff16906020019092919080359060200190929190505050620011f0565b60405180821515815260200191505060405180910390f35b6200086f600480360360408110156200083857600080fd5b8101908080359060200190929190803573ffffffffffffffffffffffffffffffffffffffff1690602001909291905050506200149f565b005b60026020528060005260406000206000915054906101000a900460ff1681565b606060048054600181600116156101000203166002900480601f0160208091040260200160405190810160405280929190818152602001828054600181600116156101000203166002900480156200092d5780601f1062000901576101008083540402835291602001916200092d565b820191906000526020600020905b8154815290600101906020018083116200090f57829003601f168201915b5050505050905090565b6000620009657fa49807205ce4d355092ef5a8a18f56e8913cf4a201fbe287825b095693c2177533620010c0565b620009d8576040517f08c379a000000000000000000000000000000000000000000000000000000000815260040180806020018281038252600a8152602001807f6f6e6c792041646d696e0000000000000000000000000000000000000000000081525060200191505060405180910390fd5b6000600360009054906101000a900473ffffffffffffffffffffffffffffffffffffffff16848460405162000a0d906200194c565b808473ffffffffffffffffffffffffffffffffffffffff1681526020018373ffffffffffffffffffffffffffffffffffffffff16815260200180602001828103825283818151815260200191508051906020019080838360005b8381101562000a8457808201518184015260208101905062000a67565b50505050905090810190601f16801562000ab25780820380516001836020036101000a031916815260200191505b50945050505050604051809103906000f08015801562000ad6573d6000803e3d6000fd5b5090506001819080600181540180825580915050600190039060005260206000200160009091909190916101000a81548173ffffffffffffffffffffffffffffffffffffffff021916908373ffffffffffffffffffffffffffffffffffffffff1602179055506001600260008373ffffffffffffffffffffffffffffffffffffffff1673ffffffffffffffffffffffffffffffffffffffff16815260200190815260200160002060006101000a81548160ff0219169083151502179055508373ffffffffffffffffffffffffffffffffffffffff163073ffffffffffffffffffffffffffffffffffffffff168273ffffffffffffffffffffffffffffffffffffffff167f01cb0c8d5dc1396e1a3566fe521a2efb4e91ef9820bd32aacb2b61dd3e67d787866040518080602001828103825283818151815260200191508051906020019080838360005b8381101562000c3d57808201518184015260208101905062000c20565b50505050905090810190601f16801562000c6b5780820380516001836020036101000a031916815260200191505b509250505060405180910390a48091505092915050565b6001818154811062000c9357600080fd5b906000526020600020016000915054906101000a900473ffffffffffffffffffffffffffffffffffffffff1681565b6000806000838152602001908152602001600020600201549050919050565b62000d0b6000808481526020019081526020016000206002015462000d0562001562565b620010c0565b62000d62576040517f08c379a000000000000000000000000000000000000000000000000000000000815260040180806020018281038252602f81526020018062002f3d602f913960400191505060405180910390fd5b62000d6e82826200156a565b5050565b62000d7c62001562565b73ffffffffffffffffffffffffffffffffffffffff168173ffffffffffffffffffffffffffffffffffffffff161462000e01576040517f08c379a000000000000000000000000000000000000000000000000000000000815260040180806020018281038252602f81526020018062002f9c602f913960400191505060405180910390fd5b62000e0d828262001602565b5050565b6000600560009054906101000a900473ffffffffffffffffffffffffffffffffffffffff16905090565b6000808390508073ffffffffffffffffffffffffffffffffffffffff16632f2ff15d7fa49807205ce4d355092ef5a8a18f56e8913cf4a201fbe287825b095693c21775856040518363ffffffff1660e01b8152600401808381526020018273ffffffffffffffffffffffffffffffffffffffff16815260200192505050600060405180830381600087803b15801562000ed357600080fd5b505af115801562000ee8573d6000803e3d6000fd5b50505050600191505092915050565b6060600180548060200260200160405190810160405280929190818152602001828054801562000f7d57602002820191906000526020600020905b8160009054906101000a900473ffffffffffffffffffffffffffffffffffffffff1673ffffffffffffffffffffffffffffffffffffffff168152602001906001019080831162000f32575b5050505050905090565b600360009054906101000a900473ffffffffffffffffffffffffffffffffffffffff1681565b7fa49807205ce4d355092ef5a8a18f56e8913cf4a201fbe287825b095693c2177581565b6000808390508073ffffffffffffffffffffffffffffffffffffffff1663d547741f7fa49807205ce4d355092ef5a8a18f56e8913cf4a201fbe287825b095693c21775856040518363ffffffff1660e01b8152600401808381526020018273ffffffffffffffffffffffffffffffffffffffff16815260200192505050600060405180830381600087803b1580156200106957600080fd5b505af11580156200107e573d6000803e3d6000fd5b50505050600191505092915050565b6000620010b8826000808681526020019081526020016000206000016200169a90919063ffffffff16565b905092915050565b6000620010eb82600080868152602001908152602001600020600001620016b690919063ffffffff16565b905092915050565b6000600360009054906101000a900473ffffffffffffffffffffffffffffffffffffffff1673ffffffffffffffffffffffffffffffffffffffff166370a08231306040518263ffffffff1660e01b8152600401808273ffffffffffffffffffffffffffffffffffffffff16815260200191505060206040518083038186803b1580156200117f57600080fd5b505afa15801562001194573d6000803e3d6000fd5b505050506040513d6020811015620011ab57600080fd5b8101908080519060200190929190505050905090565b6000801b81565b6000620011e9600080848152602001908152602001600020600001620016e8565b9050919050565b60006200121e7fa49807205ce4d355092ef5a8a18f56e8913cf4a201fbe287825b095693c2177533620010c0565b62001291576040517f08c379a000000000000000000000000000000000000000000000000000000000815260040180806020018281038252600a8152602001807f6f6e6c792041646d696e0000000000000000000000000000000000000000000081525060200191505060405180910390fd5b600260008473ffffffffffffffffffffffffffffffffffffffff1673ffffffffffffffffffffffffffffffffffffffff16815260200190815260200160002060009054906101000a900460ff1662001351576040517f08c379a00000000000000000000000000000000000000000000000000000000081526004018080602001828103825260108152602001807f546f206973206e6f742061206e6f64650000000000000000000000000000000081525060200191505060405180910390fd5b600360009054906101000a900473ffffffffffffffffffffffffffffffffffffffff1673ffffffffffffffffffffffffffffffffffffffff1663a9059cbb84846040518363ffffffff1660e01b8152600401808373ffffffffffffffffffffffffffffffffffffffff16815260200182815260200192505050602060405180830381600087803b158015620013e557600080fd5b505af1158015620013fa573d6000803e3d6000fd5b505050506040513d60208110156200141157600080fd5b810190808051906020019092919050505062001495576040517f08c379a000000000000000000000000000000000000000000000000000000000815260040180806020018281038252600d8152602001807f6572726f722073656e64696e670000000000000000000000000000000000000081525060200191505060405180910390fd5b6001905092915050565b620014c960008084815260200190815260200160002060020154620014c362001562565b620010c0565b62001520576040517f08c379a000000000000000000000000000000000000000000000000000000000815260040180806020018281038252603081526020018062002f6c6030913960400191505060405180910390fd5b6200152c828262001602565b5050565b60006200155a836000018373ffffffffffffffffffffffffffffffffffffffff1660001b620016ff565b905092915050565b600033905090565b62001593816000808581526020019081526020016000206000016200153090919063ffffffff16565b15620015fe57620015a362001562565b73ffffffffffffffffffffffffffffffffffffffff168173ffffffffffffffffffffffffffffffffffffffff16837f2f8788117e7eff1d82e926ec794901d17c78024a50270940304540a733656f0d60405160405180910390a45b5050565b6200162b816000808581526020019081526020016000206000016200177390919063ffffffff16565b1562001696576200163b62001562565b73ffffffffffffffffffffffffffffffffffffffff168173ffffffffffffffffffffffffffffffffffffffff16837ff6391f5c32d9c69d2a47ea670b442974b53935d1edc7fd64eb21e047a839171b60405160405180910390a45b5050565b6000620016ab8360000183620017a5565b60001c905092915050565b6000620016e0836000018373ffffffffffffffffffffffffffffffffffffffff1660001b6200182b565b905092915050565b6000620016f8826000016200184e565b9050919050565b60006200170d83836200182b565b620017685782600001829080600181540180825580915050600190039060005260206000200160009091909190915055826000018054905083600101600084815260200190815260200160002081905550600190506200176d565b600090505b92915050565b60006200179d836000018373ffffffffffffffffffffffffffffffffffffffff1660001b6200185f565b905092915050565b60008183600001805490501162001808576040517f08c379a000000000000000000000000000000000000000000000000000000000815260040180806020018281038252602281526020018062002f1b6022913960400191505060405180910390fd5b8260000182815481106200181857fe5b9060005260206000200154905092915050565b600080836001016000848152602001908152602001600020541415905092915050565b600081600001805490509050919050565b60008083600101600084815260200190815260200160002054905060008114620019405760006001820390506000600186600001805490500390506000866000018281548110620018ac57fe5b9060005260206000200154905080876000018481548110620018ca57fe5b90600052602060002001819055506001830187600101600083815260200190815260200160002081905550866000018054806200190357fe5b6001900381819060005260206000200160009055905586600101600087815260200190815260200160002060009055600194505050505062001946565b60009150505b92915050565b6115c0806200195b8339019056fe60806040523480156200001157600080fd5b50604051620015c0380380620015c0833981810160405260608110156200003757600080fd5b810190808051906020019092919080519060200190929190805160405193929190846401000000008211156200006c57600080fd5b838201915060208201858111156200008357600080fd5b8251866001820283011164010000000082111715620000a157600080fd5b8083526020830192505050908051906020019080838360005b83811015620000d7578082015181840152602081019050620000ba565b50505050905090810190601f168015620001055780820380516001836020036101000a031916815260200191505b5060405250505080600290805190602001906200012492919062000441565b5082600160006101000a81548173ffffffffffffffffffffffffffffffffffffffff021916908373ffffffffffffffffffffffffffffffffffffffff16021790555033600360006101000a81548173ffffffffffffffffffffffffffffffffffffffff021916908373ffffffffffffffffffffffffffffffffffffffff160217905550620001d97fa49807205ce4d355092ef5a8a18f56e8913cf4a201fbe287825b095693c21775836200024960201b60201c565b6200022b7fdc72ed553f2544c34465af23b847953efeb813428162d767f9ba5f4013be67607fa49807205ce4d355092ef5a8a18f56e8913cf4a201fbe287825b095693c217756200025f60201b60201c565b620002406000801b336200024960201b60201c565b505050620004f7565b6200025b8282620002c160201b60201c565b5050565b8060008084815260200190815260200160002060020154837fbd79b86ffe0ab8e8776151514217cd7cacd52c909f66475c3af44e129f0b00ff60405160405180910390a480600080848152602001908152602001600020600201819055505050565b620002ef816000808581526020019081526020016000206000016200036460201b62000bd71790919060201c565b156200036057620003056200039c60201b60201c565b73ffffffffffffffffffffffffffffffffffffffff168173ffffffffffffffffffffffffffffffffffffffff16837f2f8788117e7eff1d82e926ec794901d17c78024a50270940304540a733656f0d60405160405180910390a45b5050565b600062000394836000018373ffffffffffffffffffffffffffffffffffffffff1660001b620003a460201b60201c565b905092915050565b600033905090565b6000620003b883836200041e60201b60201c565b6200041357826000018290806001815401808255809150506001900390600052602060002001600090919091909150558260000180549050836001016000848152602001908152602001600020819055506001905062000418565b600090505b92915050565b600080836001016000848152602001908152602001600020541415905092915050565b828054600181600116156101000203166002900490600052602060002090601f016020900481019282620004795760008555620004c5565b82601f106200049457805160ff1916838001178555620004c5565b82800160010185558215620004c5579182015b82811115620004c4578251825591602001919060010190620004a7565b5b509050620004d49190620004d8565b5090565b5b80821115620004f3576000816000905550600101620004d9565b5090565b6110b980620005076000396000f3fe608060405234801561001057600080fd5b50600436106100f55760003560e01c80637a997ab711610097578063a217fddf11610066578063a217fddf146103e3578063ca15c87314610401578063d0679d3414610443578063d547741f146104a7576100f5565b80637a997ab7146102e15780639010d07c146102ff57806391d14854146103615780639e1a4d19146103c5576100f5565b806336568abe116100d357806336568abe1461020d57806346c198f61461025b57806362239cde1461028f57806375b238fc146102c3576100f5565b806306fdde03146100fa578063248a9ca31461017d5780632f2ff15d146101bf575b600080fd5b6101026104f5565b6040518080602001828103825283818151815260200191508051906020019080838360005b83811015610142578082015181840152602081019050610127565b50505050905090810190601f16801561016f5780820380516001836020036101000a031916815260200191505b509250505060405180910390f35b6101a96004803603602081101561019357600080fd5b8101908080359060200190929190505050610597565b6040518082815260200191505060405180910390f35b61020b600480360360408110156101d557600080fd5b8101908080359060200190929190803573ffffffffffffffffffffffffffffffffffffffff1690602001909291905050506105b6565b005b6102596004803603604081101561022357600080fd5b8101908080359060200190929190803573ffffffffffffffffffffffffffffffffffffffff16906020019092919050505061063f565b005b6102636106d8565b604051808273ffffffffffffffffffffffffffffffffffffffff16815260200191505060405180910390f35b610297610702565b604051808273ffffffffffffffffffffffffffffffffffffffff16815260200191505060405180910390f35b6102cb610728565b6040518082815260200191505060405180910390f35b6102e961074c565b6040518082815260200191505060405180910390f35b6103356004803603604081101561031557600080fd5b810190808035906020019092919080359060200190929190505050610770565b604051808273ffffffffffffffffffffffffffffffffffffffff16815260200191505060405180910390f35b6103ad6004803603604081101561037757600080fd5b8101908080359060200190929190803573ffffffffffffffffffffffffffffffffffffffff1690602001909291905050506107a1565b60405180821515815260200191505060405180910390f35b6103cd6107d2565b6040518082815260200191505060405180910390f35b6103eb61089d565b6040518082815260200191505060405180910390f35b61042d6004803603602081101561041757600080fd5b81019080803590602001909291905050506108a4565b6040518082815260200191505060405180910390f35b61048f6004803603604081101561045957600080fd5b81019080803573ffffffffffffffffffffffffffffffffffffffff169060200190929190803590602001909291905050506108ca565b60405180821515815260200191505060405180910390f35b6104f3600480360360408110156104bd57600080fd5b8101908080359060200190929190803573ffffffffffffffffffffffffffffffffffffffff169060200190929190505050610b4e565b005b606060028054600181600116156101000203166002900480601f01602080910402602001604051908101604052809291908181526020018280546001816001161561010002031660029004801561058d5780601f106105625761010080835404028352916020019161058d565b820191906000526020600020905b81548152906001019060200180831161057057829003601f168201915b5050505050905090565b6000806000838152602001908152602001600020600201549050919050565b6105dc600080848152602001908152602001600020600201546105d7610c07565b6107a1565b610631576040517f08c379a000000000000000000000000000000000000000000000000000000000815260040180806020018281038252602f815260200180610ff6602f913960400191505060405180910390fd5b61063b8282610c0f565b5050565b610647610c07565b73ffffffffffffffffffffffffffffffffffffffff168173ffffffffffffffffffffffffffffffffffffffff16146106ca576040517f08c379a000000000000000000000000000000000000000000000000000000000815260040180806020018281038252602f815260200180611055602f913960400191505060405180910390fd5b6106d48282610ca2565b5050565b6000600360009054906101000a900473ffffffffffffffffffffffffffffffffffffffff16905090565b600160009054906101000a900473ffffffffffffffffffffffffffffffffffffffff1681565b7fa49807205ce4d355092ef5a8a18f56e8913cf4a201fbe287825b095693c2177581565b7fdc72ed553f2544c34465af23b847953efeb813428162d767f9ba5f4013be676081565b600061079982600080868152602001908152602001600020600001610d3590919063ffffffff16565b905092915050565b60006107ca82600080868152602001908152602001600020600001610d4f90919063ffffffff16565b905092915050565b6000600160009054906101000a900473ffffffffffffffffffffffffffffffffffffffff1673ffffffffffffffffffffffffffffffffffffffff166370a08231306040518263ffffffff1660e01b8152600401808273ffffffffffffffffffffffffffffffffffffffff16815260200191505060206040518083038186803b15801561085d57600080fd5b505afa158015610871573d6000803e3d6000fd5b505050506040513d602081101561088757600080fd5b8101908080519060200190929190505050905090565b6000801b81565b60006108c3600080848152602001908152602001600020600001610d7f565b9050919050565b60006108f67fa49807205ce4d355092ef5a8a18f56e8913cf4a201fbe287825b095693c21775336107a1565b610968576040517f08c379a00000000000000000000000000000000000000000000000000000000081526004018080602001828103825260138152602001807f43616c6c6572206973206e6f742061646d696e0000000000000000000000000081525060200191505060405180910390fd5b6109927fdc72ed553f2544c34465af23b847953efeb813428162d767f9ba5f4013be6760846107a1565b610a04576040517f08c379a00000000000000000000000000000000000000000000000000000000081526004018080602001828103825260158152602001807f546f206973206e6f742077686974656c6973746564000000000000000000000081525060200191505060405180910390fd5b600160009054906101000a900473ffffffffffffffffffffffffffffffffffffffff1673ffffffffffffffffffffffffffffffffffffffff1663a9059cbb84846040518363ffffffff1660e01b8152600401808373ffffffffffffffffffffffffffffffffffffffff16815260200182815260200192505050602060405180830381600087803b158015610a9757600080fd5b505af1158015610aab573d6000803e3d6000fd5b505050506040513d6020811015610ac157600080fd5b8101908080519060200190929190505050610b44576040517f08c379a000000000000000000000000000000000000000000000000000000000815260040180806020018281038252600d8152602001807f6572726f722073656e64696e670000000000000000000000000000000000000081525060200191505060405180910390fd5b6001905092915050565b610b7460008084815260200190815260200160002060020154610b6f610c07565b6107a1565b610bc9576040517f08c379a00000000000000000000000000000000000000000000000000000000081526004018080602001828103825260308152602001806110256030913960400191505060405180910390fd5b610bd38282610ca2565b5050565b6000610bff836000018373ffffffffffffffffffffffffffffffffffffffff1660001b610d94565b905092915050565b600033905090565b610c3681600080858152602001908152602001600020600001610bd790919063ffffffff16565b15610c9e57610c43610c07565b73ffffffffffffffffffffffffffffffffffffffff168173ffffffffffffffffffffffffffffffffffffffff16837f2f8788117e7eff1d82e926ec794901d17c78024a50270940304540a733656f0d60405160405180910390a45b5050565b610cc981600080858152602001908152602001600020600001610e0490919063ffffffff16565b15610d3157610cd6610c07565b73ffffffffffffffffffffffffffffffffffffffff168173ffffffffffffffffffffffffffffffffffffffff16837ff6391f5c32d9c69d2a47ea670b442974b53935d1edc7fd64eb21e047a839171b60405160405180910390a45b5050565b6000610d448360000183610e34565b60001c905092915050565b6000610d77836000018373ffffffffffffffffffffffffffffffffffffffff1660001b610eb7565b905092915050565b6000610d8d82600001610eda565b9050919050565b6000610da08383610eb7565b610df9578260000182908060018154018082558091505060019003906000526020600020016000909190919091505582600001805490508360010160008481526020019081526020016000208190555060019050610dfe565b600090505b92915050565b6000610e2c836000018373ffffffffffffffffffffffffffffffffffffffff1660001b610eeb565b905092915050565b600081836000018054905011610e95576040517f08c379a0000000000000000000000000000000000000000000000000000000008152600401808060200182810382526022815260200180610fd46022913960400191505060405180910390fd5b826000018281548110610ea457fe5b9060005260206000200154905092915050565b600080836001016000848152602001908152602001600020541415905092915050565b600081600001805490509050919050565b60008083600101600084815260200190815260200160002054905060008114610fc75760006001820390506000600186600001805490500390506000866000018281548110610f3657fe5b9060005260206000200154905080876000018481548110610f5357fe5b9060005260206000200181905550600183018760010160008381526020019081526020016000208190555086600001805480610f8b57fe5b60019003818190600052602060002001600090559055866001016000878152602001908152602001600020600090556001945050505050610fcd565b60009150505b9291505056fe456e756d657261626c655365743a20696e646578206f7574206f6620626f756e6473416363657373436f6e74726f6c3a2073656e646572206d75737420626520616e2061646d696e20746f206772616e74416363657373436f6e74726f6c3a2073656e646572206d75737420626520616e2061646d696e20746f207265766f6b65416363657373436f6e74726f6c3a2063616e206f6e6c792072656e6f756e636520726f6c657320666f722073656c66a264697066735822122068291a61d3117acca8a10d603a14f472fb125f3d81b91100f9637e4b6d9874df64736f6c63430007050033456e756d657261626c655365743a20696e646578206f7574206f6620626f756e6473416363657373436f6e74726f6c3a2073656e646572206d75737420626520616e2061646d696e20746f206772616e74416363657373436f6e74726f6c3a2073656e646572206d75737420626520616e2061646d696e20746f207265766f6b65416363657373436f6e74726f6c3a2063616e206f6e6c792072656e6f756e636520726f6c657320666f722073656c66a264697066735822122076d75f846ccebdfc8e684459640da3501458b82d2f87275374524e1da7cd083e64736f6c63430007050033456e756d657261626c655365743a20696e646578206f7574206f6620626f756e6473416363657373436f6e74726f6c3a2073656e646572206d75737420626520616e2061646d696e20746f206772616e74416363657373436f6e74726f6c3a2073656e646572206d75737420626520616e2061646d696e20746f207265766f6b65416363657373436f6e74726f6c3a2063616e206f6e6c792072656e6f756e636520726f6c657320666f722073656c66a2646970667358221220ccc2c4bcca5726e991d6bcb993ba38b7bd049867313f799e6c629c8c66feb8dd64736f6c63430007050033",
  "immutableReferences": {},
  "source": "pragma solidity 0.7.5;\r\n\r\nimport '@openzeppelin/contracts/token/ERC20/IERC20.sol';\r\nimport \"@openzeppelin/contracts/access/AccessControl.sol\";\r\nimport './HeadNode.sol';\r\n\r\ncontract ElFederal is AccessControl {\r\n\r\n  IERC20 public tokenEFD;\r\n  bytes32 public constant FEDERAL_ADMIN_ROLE = keccak256(\"FEDERAL_ADMIN_ROLE\");\r\n  bytes32 public constant ADMIN_ROLE = keccak256(\"ADMIN_ROLE\");\r\n\r\n  address[] public headNodes;\r\n  mapping (address => bool) public isHeadNode;\r\n  \r\n  uint8 public required;\r\n  mapping (address => uint256) public approvedValue;\r\n  mapping (address => address[]) public approvedBy;\r\n\r\n  constructor (address tokenEFDAddress_, address[] memory admins_, uint8 required_) public  {\r\n    tokenEFD = IERC20(tokenEFDAddress_);\r\n\r\n    required = required_;\r\n    _setupRole(DEFAULT_ADMIN_ROLE, msg.sender);\r\n    for (uint i=0; i < admins_.length; i++) {\r\n      _setupRole(FEDERAL_ADMIN_ROLE, admins_[i]);\r\n    }\r\n  }\r\n\r\n  //Headnode\r\n  event CreateHeadNode (address indexed _address, address indexed _elFederal, address indexed _admin, string _name);\r\n\r\n  function createHeadNode (address admin_, string memory name_) public returns (address) {\r\n    require(hasRole(FEDERAL_ADMIN_ROLE, msg.sender), \"Caller is not Federal admin\");\r\n    HeadNode node = new HeadNode(address(tokenEFD), admin_, name_);\r\n    headNodes.push(address(node));\r\n    isHeadNode[address(node)] = true;\r\n    emit CreateHeadNode(address(node), address(this), admin_, name_);\r\n    //tokenEFD.transfer (address(node), 200);\r\n    return address(node);\r\n  }\r\n\r\n  function listHeadNodes () public view returns (address[] memory) {\r\n      return headNodes;\r\n  }\r\n\r\n  function addAdminNode (address _node, address _admin) public returns (bool) {\r\n    //Can be called only by the account defined in constructor: DEFAULT_ADMIN_ROLE\r\n    HeadNode node = HeadNode(_node);\r\n    node.grantRole(ADMIN_ROLE, _admin);\r\n    return true;\r\n  }\r\n\r\n  function removeAdminNode (address _node, address _admin) public returns (bool) {\r\n    //Can be called only by the account defined in constructor: DEFAULT_ADMIN_ROLE\r\n    HeadNode node = HeadNode(_node);\r\n    node.revokeRole(ADMIN_ROLE, _admin);\r\n    return true;\r\n  }\r\n\r\n  //Approvals\r\n  modifier notApproved(address account) {\r\n      bool approved = false;\r\n      for (uint i=0; i<approvedBy[account].length; i++) {\r\n          if (approvedBy[account][i] == msg.sender) {\r\n              approved = true;\r\n          }\r\n      }\r\n      require(!approved, \"already approved\");\r\n      _;\r\n  }\r\n\r\n  event ApprovedSend(address indexed to, uint256 value, uint256 count);\r\n  event RevokedSend(address indexed to, uint256 count);\r\n\r\n  function getApprove(address _address) public view returns (uint256, uint256) {\r\n    //amount and number of approvals\r\n    return (approvedValue[_address], approvedBy[_address].length);\r\n  }\r\n\r\n  function approve(address _to, uint256 _value) public notApproved(_to) {\r\n    require(hasRole(FEDERAL_ADMIN_ROLE, msg.sender), \"Caller is not Federal admin\");\r\n    if (approvedValue[_to] != 0) {\r\n      require (approvedValue[_to] == _value, \"different value\");\r\n    }\r\n    else {\r\n      approvedValue[_to] == _value;\r\n    }\r\n    approvedBy[_to].push(msg.sender);\r\n    emit ApprovedSend (_to, _value, approvedBy[_to].length);\r\n    \r\n    if (approvedBy[_to].length >= required) {\r\n      send(_to, _value);\r\n      clearApprove(_to);\r\n    }\r\n  }\r\n\r\n  function revoke(address _to) public  {\r\n    require(hasRole(FEDERAL_ADMIN_ROLE, msg.sender), \"Caller is not Federal admin\");\r\n    uint256 indexToDelete = 0;\r\n    bool approved = false;\r\n    for (uint i=0; i<approvedBy[_to].length; i++) {\r\n      if (approvedBy[_to][i] == msg.sender) {\r\n        indexToDelete = i;\r\n        approved = true;\r\n        break;\r\n      }\r\n    }\r\n    require(approved, \"not approved\");\r\n    address addressToMove = approvedBy[_to][approvedBy[_to].length-1];\r\n    approvedBy[_to][indexToDelete] = addressToMove;\r\n    approvedBy[_to].pop();\r\n\r\n    if (approvedBy[_to].length == 0) {\r\n      approvedValue[_to] = 0;\r\n    }\r\n    emit RevokedSend (_to, approvedBy[_to].length);\r\n  }\r\n\r\n  function clearApprove(address _to) internal {\r\n    approvedValue[_to] = 0;\r\n    delete approvedBy[_to];\r\n  }\r\n\r\n  //Send token from tresury\r\n  function send(address _to, uint256 _value) public returns (bool)  {\r\n    require(hasRole(FEDERAL_ADMIN_ROLE, msg.sender), \"Caller is not Federal admin\");\r\n    require(isHeadNode[_to], \"To is not a HeadNode\");\r\n    require (tokenEFD.transfer (_to, _value), \"error sending\");\r\n    return true;\r\n  } \r\n\r\n}",
  "sourcePath": "C:/RSK/ELFEDERAL/EFD/contracts/ElFederal.sol",
  "compiler": {
    "name": "solc",
    "version": "0.7.5+commit.eb77ed08.Emscripten.clang"
  },
  "schemaVersion": "3.3.2",
  "updatedAt": "2020-12-09T03:28:09.330Z",
  "networkType": "ethereum",
  "devdoc": {
    "kind": "dev",
    "methods": {
      "getRoleAdmin(bytes32)": {
        "details": "Returns the admin role that controls `role`. See {grantRole} and {revokeRole}. To change a role's admin, use {_setRoleAdmin}."
      },
      "getRoleMember(bytes32,uint256)": {
        "details": "Returns one of the accounts that have `role`. `index` must be a value between 0 and {getRoleMemberCount}, non-inclusive. Role bearers are not sorted in any particular way, and their ordering may change at any point. WARNING: When using {getRoleMember} and {getRoleMemberCount}, make sure you perform all queries on the same block. See the following https://forum.openzeppelin.com/t/iterating-over-elements-on-enumerableset-in-openzeppelin-contracts/2296[forum post] for more information."
      },
      "getRoleMemberCount(bytes32)": {
        "details": "Returns the number of accounts that have `role`. Can be used together with {getRoleMember} to enumerate all bearers of a role."
      },
      "grantRole(bytes32,address)": {
        "details": "Grants `role` to `account`. If `account` had not been already granted `role`, emits a {RoleGranted} event. Requirements: - the caller must have ``role``'s admin role."
      },
      "hasRole(bytes32,address)": {
        "details": "Returns `true` if `account` has been granted `role`."
      },
      "renounceRole(bytes32,address)": {
        "details": "Revokes `role` from the calling account. Roles are often managed via {grantRole} and {revokeRole}: this function's purpose is to provide a mechanism for accounts to lose their privileges if they are compromised (such as when a trusted device is misplaced). If the calling account had been granted `role`, emits a {RoleRevoked} event. Requirements: - the caller must be `account`."
      },
      "revokeRole(bytes32,address)": {
        "details": "Revokes `role` from `account`. If `account` had been granted `role`, emits a {RoleRevoked} event. Requirements: - the caller must have ``role``'s admin role."
      }
    },
    "version": 1
  },
  "userdoc": {
    "kind": "user",
    "methods": {},
    "version": 1
  }
}