{
  "contractName": "ElFederal",
  "abi": [
    {
      "constant": true,
      "inputs": [
        {
          "name": "",
          "type": "address"
        }
      ],
      "name": "approvedValue",
      "outputs": [
        {
          "name": "",
          "type": "uint256"
        }
      ],
      "payable": false,
      "stateMutability": "view",
      "type": "function"
    },
    {
      "constant": true,
      "inputs": [],
      "name": "adminCount",
      "outputs": [
        {
          "name": "",
          "type": "uint256"
        }
      ],
      "payable": false,
      "stateMutability": "view",
      "type": "function"
    },
    {
      "constant": true,
      "inputs": [],
      "name": "tokenEFD",
      "outputs": [
        {
          "name": "",
          "type": "address"
        }
      ],
      "payable": false,
      "stateMutability": "view",
      "type": "function"
    },
    {
      "constant": true,
      "inputs": [],
      "name": "owner",
      "outputs": [
        {
          "name": "",
          "type": "address"
        }
      ],
      "payable": false,
      "stateMutability": "view",
      "type": "function"
    },
    {
      "constant": true,
      "inputs": [],
      "name": "isOwner",
      "outputs": [
        {
          "name": "",
          "type": "bool"
        }
      ],
      "payable": false,
      "stateMutability": "view",
      "type": "function"
    },
    {
      "constant": true,
      "inputs": [
        {
          "name": "",
          "type": "address"
        },
        {
          "name": "",
          "type": "uint256"
        }
      ],
      "name": "approvedBy",
      "outputs": [
        {
          "name": "",
          "type": "address"
        }
      ],
      "payable": false,
      "stateMutability": "view",
      "type": "function"
    },
    {
      "constant": true,
      "inputs": [],
      "name": "MAX_ADMIN_COUNT",
      "outputs": [
        {
          "name": "",
          "type": "uint256"
        }
      ],
      "payable": false,
      "stateMutability": "view",
      "type": "function"
    },
    {
      "constant": true,
      "inputs": [],
      "name": "required",
      "outputs": [
        {
          "name": "",
          "type": "uint8"
        }
      ],
      "payable": false,
      "stateMutability": "view",
      "type": "function"
    },
    {
      "inputs": [
        {
          "name": "_admins",
          "type": "address[]"
        },
        {
          "name": "_required",
          "type": "uint8"
        }
      ],
      "payable": false,
      "stateMutability": "nonpayable",
      "type": "constructor"
    },
    {
      "anonymous": false,
      "inputs": [
        {
          "indexed": true,
          "name": "to",
          "type": "address"
        },
        {
          "indexed": false,
          "name": "value",
          "type": "uint256"
        },
        {
          "indexed": false,
          "name": "count",
          "type": "uint256"
        }
      ],
      "name": "Approved",
      "type": "event"
    },
    {
      "anonymous": false,
      "inputs": [
        {
          "indexed": true,
          "name": "to",
          "type": "address"
        },
        {
          "indexed": false,
          "name": "count",
          "type": "uint256"
        }
      ],
      "name": "Revoked",
      "type": "event"
    },
    {
      "anonymous": false,
      "inputs": [
        {
          "indexed": false,
          "name": "oldRequired",
          "type": "uint8"
        },
        {
          "indexed": false,
          "name": "newRequired",
          "type": "uint8"
        }
      ],
      "name": "RequirementChanged",
      "type": "event"
    },
    {
      "anonymous": false,
      "inputs": [
        {
          "indexed": true,
          "name": "previousOwner",
          "type": "address"
        },
        {
          "indexed": true,
          "name": "newOwner",
          "type": "address"
        }
      ],
      "name": "OwnershipTransferred",
      "type": "event"
    },
    {
      "constant": true,
      "inputs": [
        {
          "name": "_address",
          "type": "address"
        }
      ],
      "name": "getApprove",
      "outputs": [
        {
          "name": "",
          "type": "uint256"
        },
        {
          "name": "",
          "type": "uint256"
        }
      ],
      "payable": false,
      "stateMutability": "view",
      "type": "function"
    },
    {
      "constant": false,
      "inputs": [
        {
          "name": "_to",
          "type": "address"
        },
        {
          "name": "_value",
          "type": "uint256"
        }
      ],
      "name": "approve",
      "outputs": [],
      "payable": false,
      "stateMutability": "nonpayable",
      "type": "function"
    },
    {
      "constant": false,
      "inputs": [
        {
          "name": "_to",
          "type": "address"
        }
      ],
      "name": "revoke",
      "outputs": [],
      "payable": false,
      "stateMutability": "nonpayable",
      "type": "function"
    },
    {
      "constant": false,
      "inputs": [
        {
          "name": "_addresses",
          "type": "address[]"
        }
      ],
      "name": "addWhitelist",
      "outputs": [],
      "payable": false,
      "stateMutability": "nonpayable",
      "type": "function"
    },
    {
      "constant": false,
      "inputs": [
        {
          "name": "_addresses",
          "type": "address[]"
        }
      ],
      "name": "removeWhitelist",
      "outputs": [],
      "payable": false,
      "stateMutability": "nonpayable",
      "type": "function"
    },
    {
      "constant": false,
      "inputs": [
        {
          "name": "_required",
          "type": "uint8"
        }
      ],
      "name": "changeRequirement",
      "outputs": [],
      "payable": false,
      "stateMutability": "nonpayable",
      "type": "function"
    },
    {
      "constant": false,
      "inputs": [],
      "name": "renounceOwnership",
      "outputs": [],
      "payable": false,
      "stateMutability": "nonpayable",
      "type": "function"
    },
    {
      "constant": false,
      "inputs": [
        {
          "name": "newOwner",
          "type": "address"
        }
      ],
      "name": "transferOwnership",
      "outputs": [],
      "payable": false,
      "stateMutability": "nonpayable",
      "type": "function"
    },
    {
      "constant": false,
      "inputs": [
        {
          "name": "account",
          "type": "address"
        }
      ],
      "name": "addWhitelistAdmin",
      "outputs": [],
      "payable": false,
      "stateMutability": "nonpayable",
      "type": "function"
    },
    {
      "constant": false,
      "inputs": [
        {
          "name": "account",
          "type": "address"
        }
      ],
      "name": "removeWhitelistAdmin",
      "outputs": [],
      "payable": false,
      "stateMutability": "nonpayable",
      "type": "function"
    },
    {
      "constant": false,
      "inputs": [],
      "name": "pauseToken",
      "outputs": [],
      "payable": false,
      "stateMutability": "nonpayable",
      "type": "function"
    },
    {
      "constant": false,
      "inputs": [],
      "name": "unpauseToken",
      "outputs": [],
      "payable": false,
      "stateMutability": "nonpayable",
      "type": "function"
    }
  ],
  "bytecode": "0x60806040523480156200001157600080fd5b50604051620064d1380380620064d1833981018060405260408110156200003757600080fd5b8101908080516401000000008111156200005057600080fd5b828101905060208101848111156200006757600080fd5b81518560208202830111640100000000821117156200008557600080fd5b5050929190602001805190602001909291905050506000620000b5620004a7640100000000026401000000009004565b9050806000806101000a81548173ffffffffffffffffffffffffffffffffffffffff021916908373ffffffffffffffffffffffffffffffffffffffff1602179055508073ffffffffffffffffffffffffffffffffffffffff16600073ffffffffffffffffffffffffffffffffffffffff167f8be0079c531659141344cd1fd0a4f28419497f9722a3daafe3b4186f6b6457e060405160405180910390a35060606040805190810160405280600a81526020017f456c204665646572616c00000000000000000000000000000000000000000000815250905060606040805190810160405280600381526020017f454644000000000000000000000000000000000000000000000000000000000081525090506000600290506000660e35fa931a0000905083838383604051620001eb9062000752565b8080602001806020018560ff1660ff168152602001848152602001838103835287818151815260200191508051906020019080838360005b838110156200024057808201518184015260208101905062000223565b50505050905090810190601f1680156200026e5780820380516001836020036101000a031916815260200191505b50838103825286818151815260200191508051906020019080838360005b83811015620002a95780820151818401526020810190506200028c565b50505050905090810190601f168015620002d75780820380516001836020036101000a031916815260200191505b509650505050505050604051809103906000f080158015620002fd573d6000803e3d6000fd5b50600160006101000a81548173ffffffffffffffffffffffffffffffffffffffff021916908373ffffffffffffffffffffffffffffffffffffffff16021790555084600160146101000a81548160ff021916908360ff160217905550600160009054906101000a900473ffffffffffffffffffffffffffffffffffffffff1673ffffffffffffffffffffffffffffffffffffffff166310154bad306040518263ffffffff167c0100000000000000000000000000000000000000000000000000000000028152600401808273ffffffffffffffffffffffffffffffffffffffff1673ffffffffffffffffffffffffffffffffffffffff168152602001915050600060405180830381600087803b1580156200041757600080fd5b505af11580156200042c573d6000803e3d6000fd5b505050506200044a33620004af640100000000026401000000009004565b60008090505b86518110156200049a576200048c87828151811015156200046d57fe5b90602001906020020151620004af640100000000026401000000009004565b808060010191505062000450565b5050505050505062000760565b600033905090565b620004c8620006e3640100000000026401000000009004565b15156200053d576040517f08c379a00000000000000000000000000000000000000000000000000000000081526004018080602001828103825260208152602001807f4f776e61626c653a2063616c6c6572206973206e6f7420746865206f776e657281525060200191505060405180910390fd5b80600073ffffffffffffffffffffffffffffffffffffffff168173ffffffffffffffffffffffffffffffffffffffff16141515156200057b57600080fd5b600a600454101515620005f6576040517f08c379a000000000000000000000000000000000000000000000000000000000815260040180806020018281038252600f8152602001807f6d617820636f756e742061646d696e000000000000000000000000000000000081525060200191505060405180910390fd5b600160009054906101000a900473ffffffffffffffffffffffffffffffffffffffff1673ffffffffffffffffffffffffffffffffffffffff16637362d9c8836040518263ffffffff167c0100000000000000000000000000000000000000000000000000000000028152600401808273ffffffffffffffffffffffffffffffffffffffff1673ffffffffffffffffffffffffffffffffffffffff168152602001915050600060405180830381600087803b158015620006b457600080fd5b505af1158015620006c9573d6000803e3d6000fd5b505050506004600081548092919060010191905055505050565b60008060009054906101000a900473ffffffffffffffffffffffffffffffffffffffff1673ffffffffffffffffffffffffffffffffffffffff1662000736620004a7640100000000026401000000009004565b73ffffffffffffffffffffffffffffffffffffffff1614905090565b612f74806200355d83390190565b612ded80620007706000396000f3fe608060405234801561001057600080fd5b5060043610610149576000357c01000000000000000000000000000000000000000000000000000000009004806374a8f103116100ca578063d8a4be2c1161008e578063d8a4be2c14610516578063dc8452cd14610575578063edac985b14610599578063f2fde38b14610651578063fe9abc7c1461069557610149565b806374a8f103146103ba5780638da5cb5b146103fe5780638f32d59b14610448578063a7733fa71461046a578063cf2c936e146104f857610149565b806350669a031161011157806350669a03146102d457806362239cde146102de5780636897e97414610328578063715018a61461036c5780637362d9c81461037657610149565b8063095ea7b31461014e57806317d514e41461019c57806323245216146101f45780632b7832b3146102ac5780632c349627146102ca575b600080fd5b61019a6004803603604081101561016457600080fd5b81019080803573ffffffffffffffffffffffffffffffffffffffff169060200190929190803590602001909291905050506106c6565b005b6101de600480360360208110156101b257600080fd5b81019080803573ffffffffffffffffffffffffffffffffffffffff169060200190929190505050610c99565b6040518082815260200191505060405180910390f35b6102aa6004803603602081101561020a57600080fd5b810190808035906020019064010000000081111561022757600080fd5b82018360208201111561023957600080fd5b8035906020019184602083028401116401000000008311171561025b57600080fd5b919080806020026020016040519081016040528093929190818152602001838360200280828437600081840152601f19601f820116905080830192505050505050509192919290505050610cb1565b005b6102b4611024565b6040518082815260200191505060405180910390f35b6102d261102a565b005b6102dc611146565b005b6102e6611262565b604051808273ffffffffffffffffffffffffffffffffffffffff1673ffffffffffffffffffffffffffffffffffffffff16815260200191505060405180910390f35b61036a6004803603602081101561033e57600080fd5b81019080803573ffffffffffffffffffffffffffffffffffffffff169060200190929190505050611288565b005b610374611556565b005b6103b86004803603602081101561038c57600080fd5b81019080803573ffffffffffffffffffffffffffffffffffffffff169060200190929190505050611623565b005b6103fc600480360360208110156103d057600080fd5b81019080803573ffffffffffffffffffffffffffffffffffffffff169060200190929190505050611841565b005b610406611df7565b604051808273ffffffffffffffffffffffffffffffffffffffff1673ffffffffffffffffffffffffffffffffffffffff16815260200191505060405180910390f35b610450611e20565b604051808215151515815260200191505060405180910390f35b6104b66004803603604081101561048057600080fd5b81019080803573ffffffffffffffffffffffffffffffffffffffff16906020019092919080359060200190929190505050611e7e565b604051808273ffffffffffffffffffffffffffffffffffffffff1673ffffffffffffffffffffffffffffffffffffffff16815260200191505060405180910390f35b610500611ecb565b6040518082815260200191505060405180910390f35b6105586004803603602081101561052c57600080fd5b81019080803573ffffffffffffffffffffffffffffffffffffffff169060200190929190505050611ed0565b604051808381526020018281526020019250505060405180910390f35b61057d611f5f565b604051808260ff1660ff16815260200191505060405180910390f35b61064f600480360360208110156105af57600080fd5b81019080803590602001906401000000008111156105cc57600080fd5b8201836020820111156105de57600080fd5b8035906020019184602083028401116401000000008311171561060057600080fd5b919080806020026020016040519081016040528093929190818152602001838360200280828437600081840152601f19601f820116905080830192505050505050509192919290505050611f72565b005b6106936004803603602081101561066757600080fd5b81019080803573ffffffffffffffffffffffffffffffffffffffff169060200190929190505050612336565b005b6106c4600480360360208110156106ab57600080fd5b81019080803560ff1690602001909291905050506125f7565b005b600160009054906101000a900473ffffffffffffffffffffffffffffffffffffffff1673ffffffffffffffffffffffffffffffffffffffff1663bb5f747b61070c6127a8565b6040518263ffffffff167c0100000000000000000000000000000000000000000000000000000000028152600401808273ffffffffffffffffffffffffffffffffffffffff1673ffffffffffffffffffffffffffffffffffffffff16815260200191505060206040518083038186803b15801561078857600080fd5b505afa15801561079c573d6000803e3d6000fd5b505050506040513d60208110156107b257600080fd5b8101908080519060200190929190505050151561081a576040517f08c379a0000000000000000000000000000000000000000000000000000000008152600401808060200182810382526040815260200180612d826040913960400191505060405180910390fd5b81600080905060008090505b600360008473ffffffffffffffffffffffffffffffffffffffff1673ffffffffffffffffffffffffffffffffffffffff1681526020019081526020016000208054905081101561092c573373ffffffffffffffffffffffffffffffffffffffff16600360008573ffffffffffffffffffffffffffffffffffffffff1673ffffffffffffffffffffffffffffffffffffffff168152602001908152602001600020828154811015156108d357fe5b9060005260206000200160009054906101000a900473ffffffffffffffffffffffffffffffffffffffff1673ffffffffffffffffffffffffffffffffffffffff16141561091f57600191505b8080600101915050610826565b50801515156109a3576040517f08c379a00000000000000000000000000000000000000000000000000000000081526004018080602001828103825260108152602001807f616c726561647920617070726f7665640000000000000000000000000000000081525060200191505060405180910390fd5b6000600260008673ffffffffffffffffffffffffffffffffffffffff1673ffffffffffffffffffffffffffffffffffffffff168152602001908152602001600020541415610a305782600260008673ffffffffffffffffffffffffffffffffffffffff1673ffffffffffffffffffffffffffffffffffffffff168152602001908152602001600020819055505b82600260008673ffffffffffffffffffffffffffffffffffffffff1673ffffffffffffffffffffffffffffffffffffffff16815260200190815260200160002054141515610ae6576040517f08c379a000000000000000000000000000000000000000000000000000000000815260040180806020018281038252600f8152602001807f646966666572656e742076616c7565000000000000000000000000000000000081525060200191505060405180910390fd5b600360008573ffffffffffffffffffffffffffffffffffffffff1673ffffffffffffffffffffffffffffffffffffffff1681526020019081526020016000203390806001815401808255809150509060018203906000526020600020016000909192909190916101000a81548173ffffffffffffffffffffffffffffffffffffffff021916908373ffffffffffffffffffffffffffffffffffffffff160217905550508373ffffffffffffffffffffffffffffffffffffffff167f6df4c963050304104a3060e9c1fd90c9364d38b6aa09da5b2b0e3215272b6fa584600360008873ffffffffffffffffffffffffffffffffffffffff1673ffffffffffffffffffffffffffffffffffffffff16815260200190815260200160002080549050604051808381526020018281526020019250505060405180910390a2600160149054906101000a900460ff1660ff16600360008673ffffffffffffffffffffffffffffffffffffffff1673ffffffffffffffffffffffffffffffffffffffff16815260200190815260200160002080549050101515610c9357610c8884846127b0565b50610c9284612b02565b5b50505050565b60026020528060005260406000206000915090505481565b600160009054906101000a900473ffffffffffffffffffffffffffffffffffffffff1673ffffffffffffffffffffffffffffffffffffffff1663bb5f747b610cf76127a8565b6040518263ffffffff167c0100000000000000000000000000000000000000000000000000000000028152600401808273ffffffffffffffffffffffffffffffffffffffff1673ffffffffffffffffffffffffffffffffffffffff16815260200191505060206040518083038186803b158015610d7357600080fd5b505afa158015610d87573d6000803e3d6000fd5b505050506040513d6020811015610d9d57600080fd5b81019080805190602001909291905050501515610e05576040517f08c379a0000000000000000000000000000000000000000000000000000000008152600401808060200182810382526040815260200180612d826040913960400191505060405180910390fd5b60008090505b815181101561102057600160009054906101000a900473ffffffffffffffffffffffffffffffffffffffff1673ffffffffffffffffffffffffffffffffffffffff16633af32abf8383815181101515610e6057fe5b906020019060200201516040518263ffffffff167c0100000000000000000000000000000000000000000000000000000000028152600401808273ffffffffffffffffffffffffffffffffffffffff1673ffffffffffffffffffffffffffffffffffffffff16815260200191505060206040518083038186803b158015610ee657600080fd5b505afa158015610efa573d6000803e3d6000fd5b505050506040513d6020811015610f1057600080fd5b81019080805190602001909291905050501561101357600160009054906101000a900473ffffffffffffffffffffffffffffffffffffffff1673ffffffffffffffffffffffffffffffffffffffff1663291d95498383815181101515610f7257fe5b906020019060200201516040518263ffffffff167c0100000000000000000000000000000000000000000000000000000000028152600401808273ffffffffffffffffffffffffffffffffffffffff1673ffffffffffffffffffffffffffffffffffffffff168152602001915050600060405180830381600087803b158015610ffa57600080fd5b505af115801561100e573d6000803e3d6000fd5b505050505b8080600101915050610e0b565b5050565b60045481565b611032611e20565b15156110a6576040517f08c379a00000000000000000000000000000000000000000000000000000000081526004018080602001828103825260208152602001807f4f776e61626c653a2063616c6c6572206973206e6f7420746865206f776e657281525060200191505060405180910390fd5b600160009054906101000a900473ffffffffffffffffffffffffffffffffffffffff1673ffffffffffffffffffffffffffffffffffffffff16638456cb596040518163ffffffff167c0100000000000000000000000000000000000000000000000000000000028152600401600060405180830381600087803b15801561112c57600080fd5b505af1158015611140573d6000803e3d6000fd5b50505050565b61114e611e20565b15156111c2576040517f08c379a00000000000000000000000000000000000000000000000000000000081526004018080602001828103825260208152602001807f4f776e61626c653a2063616c6c6572206973206e6f7420746865206f776e657281525060200191505060405180910390fd5b600160009054906101000a900473ffffffffffffffffffffffffffffffffffffffff1673ffffffffffffffffffffffffffffffffffffffff16633f4ba83a6040518163ffffffff167c0100000000000000000000000000000000000000000000000000000000028152600401600060405180830381600087803b15801561124857600080fd5b505af115801561125c573d6000803e3d6000fd5b50505050565b600160009054906101000a900473ffffffffffffffffffffffffffffffffffffffff1681565b611290611e20565b1515611304576040517f08c379a00000000000000000000000000000000000000000000000000000000081526004018080602001828103825260208152602001807f4f776e61626c653a2063616c6c6572206973206e6f7420746865206f776e657281525060200191505060405180910390fd5b8061130d611df7565b73ffffffffffffffffffffffffffffffffffffffff168173ffffffffffffffffffffffffffffffffffffffff16141515156113b0576040517f08c379a00000000000000000000000000000000000000000000000000000000081526004018080602001828103825260088152602001807f6973206f776e657200000000000000000000000000000000000000000000000081525060200191505060405180910390fd5b600160045403600160149054906101000a900460ff1660ff16600a82111580156113da5750818111155b80156113e7575060008114155b80156113f4575060008214155b1515611468576040517f08c379a000000000000000000000000000000000000000000000000000000000815260040180806020018281038252600f8152602001807f696e76616c69642072657175697265000000000000000000000000000000000081525060200191505060405180910390fd5b600160009054906101000a900473ffffffffffffffffffffffffffffffffffffffff1673ffffffffffffffffffffffffffffffffffffffff16636897e974856040518263ffffffff167c0100000000000000000000000000000000000000000000000000000000028152600401808273ffffffffffffffffffffffffffffffffffffffff1673ffffffffffffffffffffffffffffffffffffffff168152602001915050600060405180830381600087803b15801561152557600080fd5b505af1158015611539573d6000803e3d6000fd5b505050506004600081548092919060019003919050555050505050565b61155e611e20565b15156115d2576040517f08c379a00000000000000000000000000000000000000000000000000000000081526004018080602001828103825260208152602001807f4f776e61626c653a2063616c6c6572206973206e6f7420746865206f776e657281525060200191505060405180910390fd5b6040517f08c379a000000000000000000000000000000000000000000000000000000000815260040180806020018281038252602d815260200180612d55602d913960400191505060405180910390fd5b61162b611e20565b151561169f576040517f08c379a00000000000000000000000000000000000000000000000000000000081526004018080602001828103825260208152602001807f4f776e61626c653a2063616c6c6572206973206e6f7420746865206f776e657281525060200191505060405180910390fd5b80600073ffffffffffffffffffffffffffffffffffffffff168173ffffffffffffffffffffffffffffffffffffffff16141515156116dc57600080fd5b600a600454101515611756576040517f08c379a000000000000000000000000000000000000000000000000000000000815260040180806020018281038252600f8152602001807f6d617820636f756e742061646d696e000000000000000000000000000000000081525060200191505060405180910390fd5b600160009054906101000a900473ffffffffffffffffffffffffffffffffffffffff1673ffffffffffffffffffffffffffffffffffffffff16637362d9c8836040518263ffffffff167c0100000000000000000000000000000000000000000000000000000000028152600401808273ffffffffffffffffffffffffffffffffffffffff1673ffffffffffffffffffffffffffffffffffffffff168152602001915050600060405180830381600087803b15801561181357600080fd5b505af1158015611827573d6000803e3d6000fd5b505050506004600081548092919060010191905055505050565b600160009054906101000a900473ffffffffffffffffffffffffffffffffffffffff1673ffffffffffffffffffffffffffffffffffffffff1663bb5f747b6118876127a8565b6040518263ffffffff167c0100000000000000000000000000000000000000000000000000000000028152600401808273ffffffffffffffffffffffffffffffffffffffff1673ffffffffffffffffffffffffffffffffffffffff16815260200191505060206040518083038186803b15801561190357600080fd5b505afa158015611917573d6000803e3d6000fd5b505050506040513d602081101561192d57600080fd5b81019080805190602001909291905050501515611995576040517f08c379a0000000000000000000000000000000000000000000000000000000008152600401808060200182810382526040815260200180612d826040913960400191505060405180910390fd5b6000809050600080905060008090505b600360008573ffffffffffffffffffffffffffffffffffffffff1673ffffffffffffffffffffffffffffffffffffffff16815260200190815260200160002080549050811015611ab2573373ffffffffffffffffffffffffffffffffffffffff16600360008673ffffffffffffffffffffffffffffffffffffffff1673ffffffffffffffffffffffffffffffffffffffff16815260200190815260200160002082815481101515611a5257fe5b9060005260206000200160009054906101000a900473ffffffffffffffffffffffffffffffffffffffff1673ffffffffffffffffffffffffffffffffffffffff161415611aa55780925060019150611ab2565b80806001019150506119a5565b50801515611b28576040517f08c379a000000000000000000000000000000000000000000000000000000000815260040180806020018281038252600c8152602001807f6e6f7420617070726f766564000000000000000000000000000000000000000081525060200191505060405180910390fd5b6000600360008573ffffffffffffffffffffffffffffffffffffffff1673ffffffffffffffffffffffffffffffffffffffff1681526020019081526020016000206001600360008773ffffffffffffffffffffffffffffffffffffffff1673ffffffffffffffffffffffffffffffffffffffff1681526020019081526020016000208054905003815481101515611bbb57fe5b9060005260206000200160009054906101000a900473ffffffffffffffffffffffffffffffffffffffff16905080600360008673ffffffffffffffffffffffffffffffffffffffff1673ffffffffffffffffffffffffffffffffffffffff16815260200190815260200160002084815481101515611c3557fe5b9060005260206000200160006101000a81548173ffffffffffffffffffffffffffffffffffffffff021916908373ffffffffffffffffffffffffffffffffffffffff160217905550600360008573ffffffffffffffffffffffffffffffffffffffff1673ffffffffffffffffffffffffffffffffffffffff168152602001908152602001600020805480919060019003611ccf9190612cdd565b506000600360008673ffffffffffffffffffffffffffffffffffffffff1673ffffffffffffffffffffffffffffffffffffffff168152602001908152602001600020805490501415611d61576000600260008673ffffffffffffffffffffffffffffffffffffffff1673ffffffffffffffffffffffffffffffffffffffff168152602001908152602001600020819055505b8373ffffffffffffffffffffffffffffffffffffffff167f713b90881ad62c4fa8ab6bd9197fa86481fc0c11b2edba60026514281b2dbac4600360008773ffffffffffffffffffffffffffffffffffffffff1673ffffffffffffffffffffffffffffffffffffffff168152602001908152602001600020805490506040518082815260200191505060405180910390a250505050565b60008060009054906101000a900473ffffffffffffffffffffffffffffffffffffffff16905090565b60008060009054906101000a900473ffffffffffffffffffffffffffffffffffffffff1673ffffffffffffffffffffffffffffffffffffffff16611e626127a8565b73ffffffffffffffffffffffffffffffffffffffff1614905090565b600360205281600052604060002081815481101515611e9957fe5b906000526020600020016000915091509054906101000a900473ffffffffffffffffffffffffffffffffffffffff1681565b600a81565b600080600260008473ffffffffffffffffffffffffffffffffffffffff1673ffffffffffffffffffffffffffffffffffffffff16815260200190815260200160002054600360008573ffffffffffffffffffffffffffffffffffffffff1673ffffffffffffffffffffffffffffffffffffffff1681526020019081526020016000208054905091509150915091565b600160149054906101000a900460ff1681565b600160009054906101000a900473ffffffffffffffffffffffffffffffffffffffff1673ffffffffffffffffffffffffffffffffffffffff1663bb5f747b611fb86127a8565b6040518263ffffffff167c0100000000000000000000000000000000000000000000000000000000028152600401808273ffffffffffffffffffffffffffffffffffffffff1673ffffffffffffffffffffffffffffffffffffffff16815260200191505060206040518083038186803b15801561203457600080fd5b505afa158015612048573d6000803e3d6000fd5b505050506040513d602081101561205e57600080fd5b810190808051906020019092919050505015156120c6576040517f08c379a0000000000000000000000000000000000000000000000000000000008152600401808060200182810382526040815260200180612d826040913960400191505060405180910390fd5b60008090505b815181101561233257600160009054906101000a900473ffffffffffffffffffffffffffffffffffffffff1673ffffffffffffffffffffffffffffffffffffffff16633af32abf838381518110151561212157fe5b906020019060200201516040518263ffffffff167c0100000000000000000000000000000000000000000000000000000000028152600401808273ffffffffffffffffffffffffffffffffffffffff1673ffffffffffffffffffffffffffffffffffffffff16815260200191505060206040518083038186803b1580156121a757600080fd5b505afa1580156121bb573d6000803e3d6000fd5b505050506040513d60208110156121d157600080fd5b81019080805190602001909291905050501580156122335750600073ffffffffffffffffffffffffffffffffffffffff16828281518110151561221057fe5b9060200190602002015173ffffffffffffffffffffffffffffffffffffffff1614155b1561232557600160009054906101000a900473ffffffffffffffffffffffffffffffffffffffff1673ffffffffffffffffffffffffffffffffffffffff166310154bad838381518110151561228457fe5b906020019060200201516040518263ffffffff167c0100000000000000000000000000000000000000000000000000000000028152600401808273ffffffffffffffffffffffffffffffffffffffff1673ffffffffffffffffffffffffffffffffffffffff168152602001915050600060405180830381600087803b15801561230c57600080fd5b505af1158015612320573d6000803e3d6000fd5b505050505b80806001019150506120cc565b5050565b61233e611e20565b15156123b2576040517f08c379a00000000000000000000000000000000000000000000000000000000081526004018080602001828103825260208152602001807f4f776e61626c653a2063616c6c6572206973206e6f7420746865206f776e657281525060200191505060405180910390fd5b80600073ffffffffffffffffffffffffffffffffffffffff168173ffffffffffffffffffffffffffffffffffffffff16141515156123ef57600080fd5b60006123f9611df7565b9050600160009054906101000a900473ffffffffffffffffffffffffffffffffffffffff1673ffffffffffffffffffffffffffffffffffffffff1663bb5f747b846040518263ffffffff167c0100000000000000000000000000000000000000000000000000000000028152600401808273ffffffffffffffffffffffffffffffffffffffff1673ffffffffffffffffffffffffffffffffffffffff16815260200191505060206040518083038186803b1580156124b657600080fd5b505afa1580156124ca573d6000803e3d6000fd5b505050506040513d60208110156124e057600080fd5b810190808051906020019092919050505015156125015761250083611623565b5b61250a83612b97565b600160009054906101000a900473ffffffffffffffffffffffffffffffffffffffff1673ffffffffffffffffffffffffffffffffffffffff16636897e974826040518263ffffffff167c0100000000000000000000000000000000000000000000000000000000028152600401808273ffffffffffffffffffffffffffffffffffffffff1673ffffffffffffffffffffffffffffffffffffffff168152602001915050600060405180830381600087803b1580156125c757600080fd5b505af11580156125db573d6000803e3d6000fd5b5050505060046000815480929190600190039190505550505050565b6125ff611e20565b1515612673576040517f08c379a00000000000000000000000000000000000000000000000000000000081526004018080602001828103825260208152602001807f4f776e61626c653a2063616c6c6572206973206e6f7420746865206f776e657281525060200191505060405180910390fd5b6004548160ff16600a821115801561268b5750818111155b8015612698575060008114155b80156126a5575060008214155b1515612719576040517f08c379a000000000000000000000000000000000000000000000000000000000815260040180806020018281038252600f8152602001807f696e76616c69642072657175697265000000000000000000000000000000000081525060200191505060405180910390fd5b6000600160149054906101000a900460ff16905083600160146101000a81548160ff021916908360ff1602179055507f28ce02364df94f012a617f62eec63ab5ad89588820d90ebfc3d7f3d3c1bd1c9081600160149054906101000a900460ff16604051808360ff1660ff1681526020018260ff1660ff1681526020019250505060405180910390a150505050565b600033905090565b6000600160009054906101000a900473ffffffffffffffffffffffffffffffffffffffff1673ffffffffffffffffffffffffffffffffffffffff16633af32abf846040518263ffffffff167c0100000000000000000000000000000000000000000000000000000000028152600401808273ffffffffffffffffffffffffffffffffffffffff1673ffffffffffffffffffffffffffffffffffffffff16815260200191505060206040518083038186803b15801561286d57600080fd5b505afa158015612881573d6000803e3d6000fd5b505050506040513d602081101561289757600080fd5b8101908080519060200190929190505050151561298457600160009054906101000a900473ffffffffffffffffffffffffffffffffffffffff1673ffffffffffffffffffffffffffffffffffffffff166310154bad846040518263ffffffff167c0100000000000000000000000000000000000000000000000000000000028152600401808273ffffffffffffffffffffffffffffffffffffffff1673ffffffffffffffffffffffffffffffffffffffff168152602001915050600060405180830381600087803b15801561296b57600080fd5b505af115801561297f573d6000803e3d6000fd5b505050505b600160009054906101000a900473ffffffffffffffffffffffffffffffffffffffff1673ffffffffffffffffffffffffffffffffffffffff1663a9059cbb84846040518363ffffffff167c0100000000000000000000000000000000000000000000000000000000028152600401808373ffffffffffffffffffffffffffffffffffffffff1673ffffffffffffffffffffffffffffffffffffffff16815260200182815260200192505050602060405180830381600087803b158015612a4957600080fd5b505af1158015612a5d573d6000803e3d6000fd5b505050506040513d6020811015612a7357600080fd5b81019080805190602001909291905050501515612af8576040517f08c379a000000000000000000000000000000000000000000000000000000000815260040180806020018281038252600d8152602001807f6572726f722073656e64696e670000000000000000000000000000000000000081525060200191505060405180910390fd5b6001905092915050565b6000600260008373ffffffffffffffffffffffffffffffffffffffff1673ffffffffffffffffffffffffffffffffffffffff168152602001908152602001600020819055506000600360008373ffffffffffffffffffffffffffffffffffffffff1673ffffffffffffffffffffffffffffffffffffffff16815260200190815260200160002081612b939190612cdd565b5050565b600073ffffffffffffffffffffffffffffffffffffffff168173ffffffffffffffffffffffffffffffffffffffff1614151515612c1f576040517f08c379a0000000000000000000000000000000000000000000000000000000008152600401808060200182810382526026815260200180612d2f6026913960400191505060405180910390fd5b8073ffffffffffffffffffffffffffffffffffffffff166000809054906101000a900473ffffffffffffffffffffffffffffffffffffffff1673ffffffffffffffffffffffffffffffffffffffff167f8be0079c531659141344cd1fd0a4f28419497f9722a3daafe3b4186f6b6457e060405160405180910390a3806000806101000a81548173ffffffffffffffffffffffffffffffffffffffff021916908373ffffffffffffffffffffffffffffffffffffffff16021790555050565b815481835581811115612d0457818360005260206000209182019101612d039190612d09565b5b505050565b612d2b91905b80821115612d27576000816000905550600101612d0f565b5090565b9056fe4f776e61626c653a206e6577206f776e657220697320746865207a65726f20616464726573734f776e65722063616e6e6f742072656e6f756e63652c2063616e206265206f6e6c79207472616e73666572656457686974656c69737441646d696e526f6c653a2063616c6c657220646f6573206e6f742068617665207468652057686974656c69737441646d696e20726f6c65a165627a7a7230582077a1bbd8d266fb44cfa3530e397691382ab97db4e625718dd2c363d4dd66c85c002960806040523480156200001157600080fd5b5060405162002f7438038062002f74833981018060405260808110156200003757600080fd5b8101908080516401000000008111156200005057600080fd5b828101905060208101848111156200006757600080fd5b81518560018202830111640100000000821117156200008557600080fd5b50509291906020018051640100000000811115620000a257600080fd5b82810190506020810184811115620000b957600080fd5b8151856001820283011164010000000082111715620000d757600080fd5b50509291906020018051906020019092919080519060200190929190505050838383600062000114620002a6640100000000026401000000009004565b9050806000806101000a81548173ffffffffffffffffffffffffffffffffffffffff021916908373ffffffffffffffffffffffffffffffffffffffff1602179055508073ffffffffffffffffffffffffffffffffffffffff16600073ffffffffffffffffffffffffffffffffffffffff167f8be0079c531659141344cd1fd0a4f28419497f9722a3daafe3b4186f6b6457e060405160405180910390a350620001e4620001cf620002a6640100000000026401000000009004565b620002ae640100000000026401000000009004565b6000600560006101000a81548160ff021916908315150217905550826006908051906020019062000217929190620007be565b50816007908051906020019062000230929190620007be565b5080600860006101000a81548160ff021916908360ff160217905550505050620002816200026c620002a6640100000000026401000000009004565b62000318640100000000026401000000009004565b6200029c338262000382640100000000026401000000009004565b505050506200086d565b600033905090565b620002d28160046200056264010000000002620021b0179091906401000000009004565b8073ffffffffffffffffffffffffffffffffffffffff167f6719d08c1888103bea251a4ed56406bd0c3e69723c8a1686e017e7bbe159b6f860405160405180910390a250565b6200033c8160096200056264010000000002620021b0179091906401000000009004565b8073ffffffffffffffffffffffffffffffffffffffff167f22380c05984257a1cb900161c713dd71d39e74820f1aea43bd3f1bdd2096129960405160405180910390a250565b600073ffffffffffffffffffffffffffffffffffffffff168273ffffffffffffffffffffffffffffffffffffffff161415151562000428576040517f08c379a000000000000000000000000000000000000000000000000000000000815260040180806020018281038252601f8152602001807f45524332303a206d696e7420746f20746865207a65726f20616464726573730081525060200191505060405180910390fd5b6200044d8160035462000651640100000000026200234c179091906401000000009004565b600381905550620004b581600160008573ffffffffffffffffffffffffffffffffffffffff1673ffffffffffffffffffffffffffffffffffffffff1681526020019081526020016000205462000651640100000000026200234c179091906401000000009004565b600160008473ffffffffffffffffffffffffffffffffffffffff1673ffffffffffffffffffffffffffffffffffffffff168152602001908152602001600020819055508173ffffffffffffffffffffffffffffffffffffffff16600073ffffffffffffffffffffffffffffffffffffffff167fddf252ad1be2c89b69c2b068fc378daa952ba7f163c4a11628f55a4df523b3ef836040518082815260200191505060405180910390a35050565b6200057d8282620006dc640100000000026401000000009004565b151515620005f3576040517f08c379a000000000000000000000000000000000000000000000000000000000815260040180806020018281038252601f8152602001807f526f6c65733a206163636f756e7420616c72656164792068617320726f6c650081525060200191505060405180910390fd5b60018260000160008373ffffffffffffffffffffffffffffffffffffffff1673ffffffffffffffffffffffffffffffffffffffff16815260200190815260200160002060006101000a81548160ff0219169083151502179055505050565b6000808284019050838110151515620006d2576040517f08c379a000000000000000000000000000000000000000000000000000000000815260040180806020018281038252601b8152602001807f536166654d6174683a206164646974696f6e206f766572666c6f77000000000081525060200191505060405180910390fd5b8091505092915050565b60008073ffffffffffffffffffffffffffffffffffffffff168273ffffffffffffffffffffffffffffffffffffffff161415151562000767576040517f08c379a000000000000000000000000000000000000000000000000000000000815260040180806020018281038252602281526020018062002f526022913960400191505060405180910390fd5b8260000160008373ffffffffffffffffffffffffffffffffffffffff1673ffffffffffffffffffffffffffffffffffffffff16815260200190815260200160002060009054906101000a900460ff16905092915050565b828054600181600116156101000203166002900490600052602060002090601f016020900481019282601f106200080157805160ff191683800117855562000832565b8280016001018555821562000832579182015b828111156200083157825182559160200191906001019062000814565b5b50905062000841919062000845565b5090565b6200086a91905b80821115620008665760008160009055506001016200084c565b5090565b90565b6126d5806200087d6000396000f3fe608060405234801561001057600080fd5b50600436106101ec576000357c0100000000000000000000000000000000000000000000000000000000900480636ef8d66d116101215780638f32d59b116100bf578063bb5f747b1161008e578063bb5f747b1461087b578063d6cd9473146108d7578063dd62ed3e146108e1578063f2fde38b14610959576101ec565b80638f32d59b1461070a57806395d89b411461072c578063a457c2d7146107af578063a9059cbb14610815576101ec565b80637362d9c8116100fb5780637362d9c81461062e57806382dc1ec4146106725780638456cb59146106b65780638da5cb5b146106c0576101ec565b80636ef8d66d146105c257806370a08231146105cc578063715018a614610624576101ec565b8063395093511161018e57806346fbf68e1161016857806346fbf68e146104f65780634c5a628c146105525780635c975abb1461055c5780636897e9741461057e576101ec565b8063395093511461042a5780633af32abf146104905780633f4ba83a146104ec576101ec565b806318160ddd116101ca57806318160ddd1461031e57806323b872dd1461033c578063291d9549146103c2578063313ce56714610406576101ec565b806306fdde03146101f1578063095ea7b31461027457806310154bad146102da575b600080fd5b6101f961099d565b6040518080602001828103825283818151815260200191508051906020019080838360005b8381101561023957808201518184015260208101905061021e565b50505050905090810190601f1680156102665780820380516001836020036101000a031916815260200191505b509250505060405180910390f35b6102c06004803603604081101561028a57600080fd5b81019080803573ffffffffffffffffffffffffffffffffffffffff16906020019092919080359060200190929190505050610a3f565b604051808215151515815260200191505060405180910390f35b61031c600480360360208110156102f057600080fd5b81019080803573ffffffffffffffffffffffffffffffffffffffff169060200190929190505050610ad8565b005b610326610b4b565b6040518082815260200191505060405180910390f35b6103a86004803603606081101561035257600080fd5b81019080803573ffffffffffffffffffffffffffffffffffffffff169060200190929190803573ffffffffffffffffffffffffffffffffffffffff16906020019092919080359060200190929190505050610b55565b604051808215151515815260200191505060405180910390f35b610404600480360360208110156103d857600080fd5b81019080803573ffffffffffffffffffffffffffffffffffffffff169060200190929190505050610bc5565b005b61040e610c38565b604051808260ff1660ff16815260200191505060405180910390f35b6104766004803603604081101561044057600080fd5b81019080803573ffffffffffffffffffffffffffffffffffffffff16906020019092919080359060200190929190505050610c4f565b604051808215151515815260200191505060405180910390f35b6104d2600480360360208110156104a657600080fd5b81019080803573ffffffffffffffffffffffffffffffffffffffff169060200190929190505050610ce8565b604051808215151515815260200191505060405180910390f35b6104f4610d05565b005b6105386004803603602081101561050c57600080fd5b81019080803573ffffffffffffffffffffffffffffffffffffffff169060200190929190505050610e77565b604051808215151515815260200191505060405180910390f35b61055a610e94565b005b610564610ee5565b604051808215151515815260200191505060405180910390f35b6105c06004803603602081101561059457600080fd5b81019080803573ffffffffffffffffffffffffffffffffffffffff169060200190929190505050610efc565b005b6105ca610f84565b005b61060e600480360360208110156105e257600080fd5b81019080803573ffffffffffffffffffffffffffffffffffffffff169060200190929190505050610f96565b6040518082815260200191505060405180910390f35b61062c610fdf565b005b6106706004803603602081101561064457600080fd5b81019080803573ffffffffffffffffffffffffffffffffffffffff16906020019092919050505061111a565b005b6106b46004803603602081101561068857600080fd5b81019080803573ffffffffffffffffffffffffffffffffffffffff1690602001909291905050506111a2565b005b6106be611215565b005b6106c8611388565b604051808273ffffffffffffffffffffffffffffffffffffffff1673ffffffffffffffffffffffffffffffffffffffff16815260200191505060405180910390f35b6107126113b1565b604051808215151515815260200191505060405180910390f35b61073461140f565b6040518080602001828103825283818151815260200191508051906020019080838360005b83811015610774578082015181840152602081019050610759565b50505050905090810190601f1680156107a15780820380516001836020036101000a031916815260200191505b509250505060405180910390f35b6107fb600480360360408110156107c557600080fd5b81019080803573ffffffffffffffffffffffffffffffffffffffff169060200190929190803590602001909291905050506114b1565b604051808215151515815260200191505060405180910390f35b6108616004803603604081101561082b57600080fd5b81019080803573ffffffffffffffffffffffffffffffffffffffff1690602001909291908035906020019092919050505061154a565b604051808215151515815260200191505060405180910390f35b6108bd6004803603602081101561089157600080fd5b81019080803573ffffffffffffffffffffffffffffffffffffffff1690602001909291905050506115cf565b604051808215151515815260200191505060405180910390f35b6108df6115ec565b005b610943600480360360408110156108f757600080fd5b81019080803573ffffffffffffffffffffffffffffffffffffffff169060200190929190803573ffffffffffffffffffffffffffffffffffffffff1690602001909291905050506115fe565b6040518082815260200191505060405180910390f35b61099b6004803603602081101561096f57600080fd5b81019080803573ffffffffffffffffffffffffffffffffffffffff169060200190929190505050611685565b005b606060068054600181600116156101000203166002900480601f016020809104026020016040519081016040528092919081815260200182805460018160011615610100020316600290048015610a355780601f10610a0a57610100808354040283529160200191610a35565b820191906000526020600020905b815481529060010190602001808311610a1857829003601f168201915b5050505050905090565b6000600560009054906101000a900460ff16151515610ac6576040517f08c379a00000000000000000000000000000000000000000000000000000000081526004018080602001828103825260108152602001807f5061757361626c653a207061757365640000000000000000000000000000000081525060200191505060405180910390fd5b610ad0838361170d565b905092915050565b610ae8610ae361172b565b6115cf565b1515610b3f576040517f08c379a00000000000000000000000000000000000000000000000000000000081526004018080602001828103825260408152602001806125c26040913960400191505060405180910390fd5b610b4881611733565b50565b6000600354905090565b6000610b67610b6261172b565b610ce8565b1515610bbe576040517f08c379a000000000000000000000000000000000000000000000000000000000815260040180806020018281038252603a815260200180612602603a913960400191505060405180910390fd5b9392505050565b610bd5610bd061172b565b6115cf565b1515610c2c576040517f08c379a00000000000000000000000000000000000000000000000000000000081526004018080602001828103825260408152602001806125c26040913960400191505060405180910390fd5b610c358161178d565b50565b6000600860009054906101000a900460ff16905090565b6000600560009054906101000a900460ff16151515610cd6576040517f08c379a00000000000000000000000000000000000000000000000000000000081526004018080602001828103825260108152602001807f5061757361626c653a207061757365640000000000000000000000000000000081525060200191505060405180910390fd5b610ce083836117e7565b905092915050565b6000610cfe82600a61189a90919063ffffffff16565b9050919050565b610d15610d1061172b565b610e77565b1515610d6c576040517f08c379a00000000000000000000000000000000000000000000000000000000081526004018080602001828103825260308152602001806124bc6030913960400191505060405180910390fd5b600560009054906101000a900460ff161515610df0576040517f08c379a00000000000000000000000000000000000000000000000000000000081526004018080602001828103825260148152602001807f5061757361626c653a206e6f742070617573656400000000000000000000000081525060200191505060405180910390fd5b6000600560006101000a81548160ff0219169083151502179055507f5db9ee0a495bf2e6ff9c91a7834c1ba4fdd244a5e8aa4e537bd38aeae4b073aa610e3461172b565b604051808273ffffffffffffffffffffffffffffffffffffffff1673ffffffffffffffffffffffffffffffffffffffff16815260200191505060405180910390a1565b6000610e8d82600461189a90919063ffffffff16565b9050919050565b6040517f08c379a000000000000000000000000000000000000000000000000000000000815260040180806020018281038252602581526020018061255a6025913960400191505060405180910390fd5b6000600560009054906101000a900460ff16905090565b610f046113b1565b1515610f78576040517f08c379a00000000000000000000000000000000000000000000000000000000081526004018080602001828103825260208152602001807f4f776e61626c653a2063616c6c6572206973206e6f7420746865206f776e657281525060200191505060405180910390fd5b610f818161197a565b50565b610f94610f8f61172b565b6119d4565b565b6000600160008373ffffffffffffffffffffffffffffffffffffffff1673ffffffffffffffffffffffffffffffffffffffff168152602001908152602001600020549050919050565b610fe76113b1565b151561105b576040517f08c379a00000000000000000000000000000000000000000000000000000000081526004018080602001828103825260208152602001807f4f776e61626c653a2063616c6c6572206973206e6f7420746865206f776e657281525060200191505060405180910390fd5b600073ffffffffffffffffffffffffffffffffffffffff166000809054906101000a900473ffffffffffffffffffffffffffffffffffffffff1673ffffffffffffffffffffffffffffffffffffffff167f8be0079c531659141344cd1fd0a4f28419497f9722a3daafe3b4186f6b6457e060405160405180910390a360008060006101000a81548173ffffffffffffffffffffffffffffffffffffffff021916908373ffffffffffffffffffffffffffffffffffffffff160217905550565b6111226113b1565b1515611196576040517f08c379a00000000000000000000000000000000000000000000000000000000081526004018080602001828103825260208152602001807f4f776e61626c653a2063616c6c6572206973206e6f7420746865206f776e657281525060200191505060405180910390fd5b61119f81611a2e565b50565b6111b26111ad61172b565b610e77565b1515611209576040517f08c379a00000000000000000000000000000000000000000000000000000000081526004018080602001828103825260308152602001806124bc6030913960400191505060405180910390fd5b61121281611a88565b50565b61122561122061172b565b610e77565b151561127c576040517f08c379a00000000000000000000000000000000000000000000000000000000081526004018080602001828103825260308152602001806124bc6030913960400191505060405180910390fd5b600560009054906101000a900460ff16151515611301576040517f08c379a00000000000000000000000000000000000000000000000000000000081526004018080602001828103825260108152602001807f5061757361626c653a207061757365640000000000000000000000000000000081525060200191505060405180910390fd5b6001600560006101000a81548160ff0219169083151502179055507f62e78cea01bee320cd4e420270b5ea74000d11b0c9f74754ebdbfc544b05a25861134561172b565b604051808273ffffffffffffffffffffffffffffffffffffffff1673ffffffffffffffffffffffffffffffffffffffff16815260200191505060405180910390a1565b60008060009054906101000a900473ffffffffffffffffffffffffffffffffffffffff16905090565b60008060009054906101000a900473ffffffffffffffffffffffffffffffffffffffff1673ffffffffffffffffffffffffffffffffffffffff166113f361172b565b73ffffffffffffffffffffffffffffffffffffffff1614905090565b606060078054600181600116156101000203166002900480601f0160208091040260200160405190810160405280929190818152602001828054600181600116156101000203166002900480156114a75780601f1061147c576101008083540402835291602001916114a7565b820191906000526020600020905b81548152906001019060200180831161148a57829003601f168201915b5050505050905090565b6000600560009054906101000a900460ff16151515611538576040517f08c379a00000000000000000000000000000000000000000000000000000000081526004018080602001828103825260108152602001807f5061757361626c653a207061757365640000000000000000000000000000000081525060200191505060405180910390fd5b6115428383611ae2565b905092915050565b600061155c61155761172b565b610ce8565b15156115b3576040517f08c379a000000000000000000000000000000000000000000000000000000000815260040180806020018281038252603a815260200180612602603a913960400191505060405180910390fd5b6115c56115be61172b565b8484611bb0565b6001905092915050565b60006115e582600961189a90919063ffffffff16565b9050919050565b6115fc6115f761172b565b61178d565b565b6000600260008473ffffffffffffffffffffffffffffffffffffffff1673ffffffffffffffffffffffffffffffffffffffff16815260200190815260200160002060008373ffffffffffffffffffffffffffffffffffffffff1673ffffffffffffffffffffffffffffffffffffffff16815260200190815260200160002054905092915050565b61168d6113b1565b1515611701576040517f08c379a00000000000000000000000000000000000000000000000000000000081526004018080602001828103825260208152602001807f4f776e61626c653a2063616c6c6572206973206e6f7420746865206f776e657281525060200191505060405180910390fd5b61170a81611e6f565b50565b600061172161171a61172b565b8484611fb5565b6001905092915050565b600033905090565b61174781600a6121b090919063ffffffff16565b8073ffffffffffffffffffffffffffffffffffffffff167fee1504a83b6d4a361f4c1dc78ab59bfa30d6a3b6612c403e86bb01ef2984295f60405160405180910390a250565b6117a181600a61228d90919063ffffffff16565b8073ffffffffffffffffffffffffffffffffffffffff167f270d9b30cf5b0793bbfd54c9d5b94aeb49462b8148399000265144a8722da6b660405160405180910390a250565b60006118906117f461172b565b8461188b856002600061180561172b565b73ffffffffffffffffffffffffffffffffffffffff1673ffffffffffffffffffffffffffffffffffffffff16815260200190815260200160002060008973ffffffffffffffffffffffffffffffffffffffff1673ffffffffffffffffffffffffffffffffffffffff1681526020019081526020016000205461234c90919063ffffffff16565b611fb5565b6001905092915050565b60008073ffffffffffffffffffffffffffffffffffffffff168273ffffffffffffffffffffffffffffffffffffffff1614151515611923576040517f08c379a00000000000000000000000000000000000000000000000000000000081526004018080602001828103825260228152602001806125a06022913960400191505060405180910390fd5b8260000160008373ffffffffffffffffffffffffffffffffffffffff1673ffffffffffffffffffffffffffffffffffffffff16815260200190815260200160002060009054906101000a900460ff16905092915050565b61198e81600961228d90919063ffffffff16565b8073ffffffffffffffffffffffffffffffffffffffff167f0a8eb35e5ca14b3d6f28e4abf2f128dbab231a58b56e89beb5d636115001e16560405160405180910390a250565b6119e881600461228d90919063ffffffff16565b8073ffffffffffffffffffffffffffffffffffffffff167fcd265ebaf09df2871cc7bd4133404a235ba12eff2041bb89d9c714a2621c7c7e60405160405180910390a250565b611a428160096121b090919063ffffffff16565b8073ffffffffffffffffffffffffffffffffffffffff167f22380c05984257a1cb900161c713dd71d39e74820f1aea43bd3f1bdd2096129960405160405180910390a250565b611a9c8160046121b090919063ffffffff16565b8073ffffffffffffffffffffffffffffffffffffffff167f6719d08c1888103bea251a4ed56406bd0c3e69723c8a1686e017e7bbe159b6f860405160405180910390a250565b6000611ba6611aef61172b565b84611ba185606060405190810160405280602581526020016126856025913960026000611b1a61172b565b73ffffffffffffffffffffffffffffffffffffffff1673ffffffffffffffffffffffffffffffffffffffff16815260200190815260200160002060008a73ffffffffffffffffffffffffffffffffffffffff1673ffffffffffffffffffffffffffffffffffffffff168152602001908152602001600020546123d69092919063ffffffff16565b611fb5565b6001905092915050565b600073ffffffffffffffffffffffffffffffffffffffff168373ffffffffffffffffffffffffffffffffffffffff1614151515611c38576040517f08c379a000000000000000000000000000000000000000000000000000000000815260040180806020018281038252602581526020018061263c6025913960400191505060405180910390fd5b600073ffffffffffffffffffffffffffffffffffffffff168273ffffffffffffffffffffffffffffffffffffffff1614151515611cc0576040517f08c379a00000000000000000000000000000000000000000000000000000000081526004018080602001828103825260238152602001806124996023913960400191505060405180910390fd5b611d2d816060604051908101604052806026815260200161253460269139600160008773ffffffffffffffffffffffffffffffffffffffff1673ffffffffffffffffffffffffffffffffffffffff168152602001908152602001600020546123d69092919063ffffffff16565b600160008573ffffffffffffffffffffffffffffffffffffffff1673ffffffffffffffffffffffffffffffffffffffff16815260200190815260200160002081905550611dc281600160008573ffffffffffffffffffffffffffffffffffffffff1673ffffffffffffffffffffffffffffffffffffffff1681526020019081526020016000205461234c90919063ffffffff16565b600160008473ffffffffffffffffffffffffffffffffffffffff1673ffffffffffffffffffffffffffffffffffffffff168152602001908152602001600020819055508173ffffffffffffffffffffffffffffffffffffffff168373ffffffffffffffffffffffffffffffffffffffff167fddf252ad1be2c89b69c2b068fc378daa952ba7f163c4a11628f55a4df523b3ef836040518082815260200191505060405180910390a3505050565b600073ffffffffffffffffffffffffffffffffffffffff168173ffffffffffffffffffffffffffffffffffffffff1614151515611ef7576040517f08c379a00000000000000000000000000000000000000000000000000000000081526004018080602001828103825260268152602001806124ec6026913960400191505060405180910390fd5b8073ffffffffffffffffffffffffffffffffffffffff166000809054906101000a900473ffffffffffffffffffffffffffffffffffffffff1673ffffffffffffffffffffffffffffffffffffffff167f8be0079c531659141344cd1fd0a4f28419497f9722a3daafe3b4186f6b6457e060405160405180910390a3806000806101000a81548173ffffffffffffffffffffffffffffffffffffffff021916908373ffffffffffffffffffffffffffffffffffffffff16021790555050565b600073ffffffffffffffffffffffffffffffffffffffff168373ffffffffffffffffffffffffffffffffffffffff161415151561203d576040517f08c379a00000000000000000000000000000000000000000000000000000000081526004018080602001828103825260248152602001806126616024913960400191505060405180910390fd5b600073ffffffffffffffffffffffffffffffffffffffff168273ffffffffffffffffffffffffffffffffffffffff16141515156120c5576040517f08c379a00000000000000000000000000000000000000000000000000000000081526004018080602001828103825260228152602001806125126022913960400191505060405180910390fd5b80600260008573ffffffffffffffffffffffffffffffffffffffff1673ffffffffffffffffffffffffffffffffffffffff16815260200190815260200160002060008473ffffffffffffffffffffffffffffffffffffffff1673ffffffffffffffffffffffffffffffffffffffff168152602001908152602001600020819055508173ffffffffffffffffffffffffffffffffffffffff168373ffffffffffffffffffffffffffffffffffffffff167f8c5be1e5ebec7d5bd14f71427d1e84f3dd0314c0f7b2291e5b200ac8c7c3b925836040518082815260200191505060405180910390a3505050565b6121ba828261189a565b15151561222f576040517f08c379a000000000000000000000000000000000000000000000000000000000815260040180806020018281038252601f8152602001807f526f6c65733a206163636f756e7420616c72656164792068617320726f6c650081525060200191505060405180910390fd5b60018260000160008373ffffffffffffffffffffffffffffffffffffffff1673ffffffffffffffffffffffffffffffffffffffff16815260200190815260200160002060006101000a81548160ff0219169083151502179055505050565b612297828261189a565b15156122ee576040517f08c379a000000000000000000000000000000000000000000000000000000000815260040180806020018281038252602181526020018061257f6021913960400191505060405180910390fd5b60008260000160008373ffffffffffffffffffffffffffffffffffffffff1673ffffffffffffffffffffffffffffffffffffffff16815260200190815260200160002060006101000a81548160ff0219169083151502179055505050565b60008082840190508381101515156123cc576040517f08c379a000000000000000000000000000000000000000000000000000000000815260040180806020018281038252601b8152602001807f536166654d6174683a206164646974696f6e206f766572666c6f77000000000081525060200191505060405180910390fd5b8091505092915050565b60008383111582901515612485576040517f08c379a00000000000000000000000000000000000000000000000000000000081526004018080602001828103825283818151815260200191508051906020019080838360005b8381101561244a57808201518184015260208101905061242f565b50505050905090810190601f1680156124775780820380516001836020036101000a031916815260200191505b509250505060405180910390fd5b506000838503905080915050939250505056fe45524332303a207472616e7366657220746f20746865207a65726f2061646472657373506175736572526f6c653a2063616c6c657220646f6573206e6f742068617665207468652050617573657220726f6c654f776e61626c653a206e6577206f776e657220697320746865207a65726f206164647265737345524332303a20617070726f766520746f20746865207a65726f206164647265737345524332303a207472616e7366657220616d6f756e7420657863656564732062616c616e636563616e206e6f742072656e6f756e63652c20636f6e74726f6c6c6564206279206f776e6572526f6c65733a206163636f756e7420646f6573206e6f74206861766520726f6c65526f6c65733a206163636f756e7420697320746865207a65726f206164647265737357686974656c69737441646d696e526f6c653a2063616c6c657220646f6573206e6f742068617665207468652057686974656c69737441646d696e20726f6c6557686974656c6973746564526f6c653a2063616c6c657220646f6573206e6f742068617665207468652057686974656c697374656420726f6c6545524332303a207472616e736665722066726f6d20746865207a65726f206164647265737345524332303a20617070726f76652066726f6d20746865207a65726f206164647265737345524332303a2064656372656173656420616c6c6f77616e63652062656c6f77207a65726fa165627a7a723058202fd3e13992b3c40d2bf4883877a95970e9fdee3dc07abf4eb1bc8149126072f20029526f6c65733a206163636f756e7420697320746865207a65726f2061646472657373",
  "source": "pragma solidity 0.5.4;\r\n\r\nimport '@openzeppelin/contracts/ownership/Ownable.sol';\r\nimport './TokenEFD.sol';\r\n\r\ncontract ElFederal is Ownable {\r\n    TokenEFD public tokenEFD;\r\n\r\n    uint8 public required;\r\n    mapping (address => uint256) public approvedValue;\r\n    mapping (address => address[]) public approvedBy;\r\n    \r\n    uint constant public MAX_ADMIN_COUNT = 10;\r\n    uint public adminCount;\r\n\r\n    event Approved(address indexed to, uint256 value, uint256 count);\r\n    event Revoked(address indexed to, uint256 count);\r\n    event RequirementChanged(uint8 oldRequired, uint8 newRequired);\r\n\r\n    constructor (address[] memory _admins, uint8 _required) public  {\r\n       string memory name = \"El Federal\";\r\n       string memory symbol = \"EFD\";\r\n       uint8 decimals = 2;\r\n       uint256 totalSupply = 4000000000000000;\r\n       tokenEFD = new TokenEFD(name, symbol, decimals, totalSupply);       \r\n       required = _required;\r\n       tokenEFD.addWhitelisted(address(this));\r\n       addWhitelistAdmin(msg.sender);\r\n        for (uint i=0; i<_admins.length; i++) {\r\n            addWhitelistAdmin(_admins[i]);\r\n        }\r\n    }\r\n\r\n    modifier notNull(address _address) {\r\n        require(_address != address(0x0));\r\n        _;\r\n    }\r\n\r\n    modifier validRequirement(uint _adminCount, uint _required) {\r\n        require(_adminCount <= MAX_ADMIN_COUNT\r\n            && _required <= _adminCount\r\n            && _required != 0\r\n            && _adminCount != 0, \"invalid require\");\r\n        _;\r\n    }    \r\n\r\n    modifier onlyWhitelistAdmin() {\r\n        require(tokenEFD.isWhitelistAdmin(_msgSender()), \"WhitelistAdminRole: caller does not have the WhitelistAdmin role\");\r\n        _;\r\n    }    \r\n\r\n    modifier notApproved(address account) {\r\n        bool approved = false;\r\n        for (uint i=0; i<approvedBy[account].length; i++) {\r\n            if (approvedBy[account][i] == msg.sender) {\r\n                approved = true;\r\n            }\r\n        }\r\n        require(!approved, \"already approved\");\r\n        _;\r\n    }\r\n\r\n    modifier notOwner(address account) {\r\n        require(account != owner(), \"is owner\");\r\n        _;\r\n    }\r\n\r\n    //Approvals\r\n    function getApprove(address _address) public view returns (uint256, uint256) {\r\n        return (approvedValue[_address], approvedBy[_address].length);\r\n    }\r\n\r\n    function approve(address _to, uint256 _value) public onlyWhitelistAdmin notApproved(_to) {\r\n        if (approvedValue[_to] == 0) {\r\n               approvedValue[_to] = _value;\r\n        }\r\n        require (approvedValue[_to] == _value, \"different value\");\r\n        approvedBy[_to].push(msg.sender);\r\n        emit Approved (_to, _value, approvedBy[_to].length);\r\n        \r\n        if (approvedBy[_to].length >= required) {\r\n            send(_to, _value);\r\n            clearApprove(_to);\r\n        }\r\n    }\r\n\r\n    function revoke(address _to) public onlyWhitelistAdmin {\r\n        uint256 indexToDelete = 0;\r\n        bool approved = false;\r\n        for (uint i=0; i<approvedBy[_to].length; i++) {\r\n            if (approvedBy[_to][i] == msg.sender) {\r\n                indexToDelete = i;\r\n                approved = true;\r\n                break;\r\n            }\r\n        }\r\n        require(approved, \"not approved\");\r\n        address addressToMove = approvedBy[_to][approvedBy[_to].length-1];\r\n        approvedBy[_to][indexToDelete] = addressToMove;\r\n        approvedBy[_to].length--;\r\n\r\n        if (approvedBy[_to].length == 0) {\r\n               approvedValue[_to] = 0;\r\n        }\r\n        emit Revoked (_to, approvedBy[_to].length);\r\n    }\r\n\r\n    function clearApprove(address _to) internal {\r\n       approvedValue[_to] = 0;\r\n       approvedBy[_to].length = 0;\r\n    }\r\n    \r\n    //Send token from tresury\r\n    function send(address _to, uint256 _value) internal returns (bool)  {\r\n        if (!tokenEFD.isWhitelisted(_to)) {\r\n            tokenEFD.addWhitelisted(_to);\r\n        }\r\n        require (tokenEFD.transfer (_to, _value), \"error sending\");\r\n        return true;\r\n    }\r\n    \r\n    //Whitelist\r\n    function addWhitelist(address[] memory _addresses) public \r\n        onlyWhitelistAdmin\r\n    {\r\n       for (uint256 i = 0; i < _addresses.length; i++) {\r\n           if (!tokenEFD.isWhitelisted(_addresses[i]) && _addresses[i] != address(0x0)) {\r\n                tokenEFD.addWhitelisted(_addresses[i]);\r\n           }\r\n       }            \r\n    }    \r\n\r\n    function removeWhitelist(address[] memory _addresses) public onlyWhitelistAdmin {\r\n       for (uint256 i = 0; i < _addresses.length; i++) {\r\n           if (tokenEFD.isWhitelisted(_addresses[i]))\r\n                tokenEFD.removeWhitelisted(_addresses[i]);\r\n       }            \r\n    }\r\n    \r\n    //Owner admin\r\n    function changeRequirement(uint8 _required) public onlyOwner\r\n        validRequirement(adminCount, _required)\r\n    {\r\n        uint8 oldRequired = required; \r\n        required = _required;\r\n        emit RequirementChanged(oldRequired, required);\r\n    }    \r\n\r\n    function renounceOwnership() public onlyOwner {\r\n        revert (\"Owner cannot renounce, can be only transfered\");\r\n    }\r\n\r\n    function transferOwnership(address newOwner) public onlyOwner notNull(newOwner) {\r\n        address oldOwner = owner();\r\n        if (!tokenEFD.isWhitelistAdmin(newOwner)) {\r\n            addWhitelistAdmin(newOwner);\r\n        }        \r\n        _transferOwnership(newOwner);\r\n        tokenEFD.removeWhitelistAdmin(oldOwner);\r\n        adminCount--;\r\n    }\r\n    \r\n    function addWhitelistAdmin(address account) public onlyOwner notNull(account) {\r\n        require (adminCount < MAX_ADMIN_COUNT, \"max count admin\");\r\n        tokenEFD.addWhitelistAdmin(account);\r\n        adminCount++;        \r\n    }\r\n    \r\n    function removeWhitelistAdmin (address account) public onlyOwner \r\n        notOwner(account) \r\n        validRequirement(adminCount-1, required)\r\n    {\r\n        tokenEFD.removeWhitelistAdmin(account);\r\n        adminCount--;\r\n    }\r\n\r\n    function pauseToken() public onlyOwner {\r\n        tokenEFD.pause();\r\n    }\r\n\r\n    function unpauseToken() public onlyOwner {\r\n        tokenEFD.unpause();\r\n    }    \r\n}",
  "sourcePath": "C:\\RSK\\TokenEF-dAPP\\contracts\\ElFederal.sol",
  "compiler": {
    "name": "solc",
    "version": "0.5.4+commit.9549d8ff.Emscripten.clang"
  },
  "schemaVersion": "3.2.2",
  "updatedAt": "2020-10-02T18:18:32.086Z",
  "networkType": "ethereum",
  "devdoc": {
    "methods": {
      "isOwner()": {
        "details": "Returns true if the caller is the current owner."
      },
      "owner()": {
        "details": "Returns the address of the current owner."
      }
    }
  },
  "userdoc": {
    "methods": {}
  }
}