{
  "contractName": "Node",
  "abi": [
    {
      "inputs": [
        {
          "internalType": "address",
          "name": "tokenEFDAddress_",
          "type": "address"
        },
        {
          "internalType": "address",
          "name": "admin_",
          "type": "address"
        },
        {
          "internalType": "string",
          "name": "name_",
          "type": "string"
        }
      ],
      "stateMutability": "nonpayable",
      "type": "constructor"
    },
    {
      "anonymous": false,
      "inputs": [
        {
          "indexed": true,
          "internalType": "bytes32",
          "name": "role",
          "type": "bytes32"
        },
        {
          "indexed": true,
          "internalType": "bytes32",
          "name": "previousAdminRole",
          "type": "bytes32"
        },
        {
          "indexed": true,
          "internalType": "bytes32",
          "name": "newAdminRole",
          "type": "bytes32"
        }
      ],
      "name": "RoleAdminChanged",
      "type": "event"
    },
    {
      "anonymous": false,
      "inputs": [
        {
          "indexed": true,
          "internalType": "bytes32",
          "name": "role",
          "type": "bytes32"
        },
        {
          "indexed": true,
          "internalType": "address",
          "name": "account",
          "type": "address"
        },
        {
          "indexed": true,
          "internalType": "address",
          "name": "sender",
          "type": "address"
        }
      ],
      "name": "RoleGranted",
      "type": "event"
    },
    {
      "anonymous": false,
      "inputs": [
        {
          "indexed": true,
          "internalType": "bytes32",
          "name": "role",
          "type": "bytes32"
        },
        {
          "indexed": true,
          "internalType": "address",
          "name": "account",
          "type": "address"
        },
        {
          "indexed": true,
          "internalType": "address",
          "name": "sender",
          "type": "address"
        }
      ],
      "name": "RoleRevoked",
      "type": "event"
    },
    {
      "inputs": [],
      "name": "ADMIN_ROLE",
      "outputs": [
        {
          "internalType": "bytes32",
          "name": "",
          "type": "bytes32"
        }
      ],
      "stateMutability": "view",
      "type": "function",
      "constant": true
    },
    {
      "inputs": [],
      "name": "DEFAULT_ADMIN_ROLE",
      "outputs": [
        {
          "internalType": "bytes32",
          "name": "",
          "type": "bytes32"
        }
      ],
      "stateMutability": "view",
      "type": "function",
      "constant": true
    },
    {
      "inputs": [],
      "name": "WHITELIST_ROLE",
      "outputs": [
        {
          "internalType": "bytes32",
          "name": "",
          "type": "bytes32"
        }
      ],
      "stateMutability": "view",
      "type": "function",
      "constant": true
    },
    {
      "inputs": [
        {
          "internalType": "bytes32",
          "name": "role",
          "type": "bytes32"
        }
      ],
      "name": "getRoleAdmin",
      "outputs": [
        {
          "internalType": "bytes32",
          "name": "",
          "type": "bytes32"
        }
      ],
      "stateMutability": "view",
      "type": "function",
      "constant": true
    },
    {
      "inputs": [
        {
          "internalType": "bytes32",
          "name": "role",
          "type": "bytes32"
        },
        {
          "internalType": "uint256",
          "name": "index",
          "type": "uint256"
        }
      ],
      "name": "getRoleMember",
      "outputs": [
        {
          "internalType": "address",
          "name": "",
          "type": "address"
        }
      ],
      "stateMutability": "view",
      "type": "function",
      "constant": true
    },
    {
      "inputs": [
        {
          "internalType": "bytes32",
          "name": "role",
          "type": "bytes32"
        }
      ],
      "name": "getRoleMemberCount",
      "outputs": [
        {
          "internalType": "uint256",
          "name": "",
          "type": "uint256"
        }
      ],
      "stateMutability": "view",
      "type": "function",
      "constant": true
    },
    {
      "inputs": [
        {
          "internalType": "bytes32",
          "name": "role",
          "type": "bytes32"
        },
        {
          "internalType": "address",
          "name": "account",
          "type": "address"
        }
      ],
      "name": "grantRole",
      "outputs": [],
      "stateMutability": "nonpayable",
      "type": "function"
    },
    {
      "inputs": [
        {
          "internalType": "bytes32",
          "name": "role",
          "type": "bytes32"
        },
        {
          "internalType": "address",
          "name": "account",
          "type": "address"
        }
      ],
      "name": "hasRole",
      "outputs": [
        {
          "internalType": "bool",
          "name": "",
          "type": "bool"
        }
      ],
      "stateMutability": "view",
      "type": "function",
      "constant": true
    },
    {
      "inputs": [
        {
          "internalType": "bytes32",
          "name": "role",
          "type": "bytes32"
        },
        {
          "internalType": "address",
          "name": "account",
          "type": "address"
        }
      ],
      "name": "renounceRole",
      "outputs": [],
      "stateMutability": "nonpayable",
      "type": "function"
    },
    {
      "inputs": [
        {
          "internalType": "bytes32",
          "name": "role",
          "type": "bytes32"
        },
        {
          "internalType": "address",
          "name": "account",
          "type": "address"
        }
      ],
      "name": "revokeRole",
      "outputs": [],
      "stateMutability": "nonpayable",
      "type": "function"
    },
    {
      "inputs": [],
      "name": "tokenEFD",
      "outputs": [
        {
          "internalType": "contract IERC20",
          "name": "",
          "type": "address"
        }
      ],
      "stateMutability": "view",
      "type": "function",
      "constant": true
    },
    {
      "inputs": [],
      "name": "name",
      "outputs": [
        {
          "internalType": "string",
          "name": "",
          "type": "string"
        }
      ],
      "stateMutability": "view",
      "type": "function",
      "constant": true
    },
    {
      "inputs": [],
      "name": "headNode",
      "outputs": [
        {
          "internalType": "address",
          "name": "",
          "type": "address"
        }
      ],
      "stateMutability": "view",
      "type": "function",
      "constant": true
    },
    {
      "inputs": [],
      "name": "tokenBalance",
      "outputs": [
        {
          "internalType": "uint256",
          "name": "",
          "type": "uint256"
        }
      ],
      "stateMutability": "view",
      "type": "function",
      "constant": true
    },
    {
      "inputs": [
        {
          "internalType": "address",
          "name": "_to",
          "type": "address"
        },
        {
          "internalType": "uint256",
          "name": "_value",
          "type": "uint256"
        }
      ],
      "name": "send",
      "outputs": [
        {
          "internalType": "bool",
          "name": "",
          "type": "bool"
        }
      ],
      "stateMutability": "nonpayable",
      "type": "function"
    }
  ],
  "bytecode": "0x60806040523480156200001157600080fd5b50604051620015c0380380620015c0833981810160405260608110156200003757600080fd5b810190808051906020019092919080519060200190929190805160405193929190846401000000008211156200006c57600080fd5b838201915060208201858111156200008357600080fd5b8251866001820283011164010000000082111715620000a157600080fd5b8083526020830192505050908051906020019080838360005b83811015620000d7578082015181840152602081019050620000ba565b50505050905090810190601f168015620001055780820380516001836020036101000a031916815260200191505b5060405250505080600290805190602001906200012492919062000441565b5082600160006101000a81548173ffffffffffffffffffffffffffffffffffffffff021916908373ffffffffffffffffffffffffffffffffffffffff16021790555033600360006101000a81548173ffffffffffffffffffffffffffffffffffffffff021916908373ffffffffffffffffffffffffffffffffffffffff160217905550620001d97fa49807205ce4d355092ef5a8a18f56e8913cf4a201fbe287825b095693c21775836200024960201b60201c565b6200022b7fdc72ed553f2544c34465af23b847953efeb813428162d767f9ba5f4013be67607fa49807205ce4d355092ef5a8a18f56e8913cf4a201fbe287825b095693c217756200025f60201b60201c565b620002406000801b336200024960201b60201c565b505050620004f7565b6200025b8282620002c160201b60201c565b5050565b8060008084815260200190815260200160002060020154837fbd79b86ffe0ab8e8776151514217cd7cacd52c909f66475c3af44e129f0b00ff60405160405180910390a480600080848152602001908152602001600020600201819055505050565b620002ef816000808581526020019081526020016000206000016200036460201b62000bd71790919060201c565b156200036057620003056200039c60201b60201c565b73ffffffffffffffffffffffffffffffffffffffff168173ffffffffffffffffffffffffffffffffffffffff16837f2f8788117e7eff1d82e926ec794901d17c78024a50270940304540a733656f0d60405160405180910390a45b5050565b600062000394836000018373ffffffffffffffffffffffffffffffffffffffff1660001b620003a460201b60201c565b905092915050565b600033905090565b6000620003b883836200041e60201b60201c565b6200041357826000018290806001815401808255809150506001900390600052602060002001600090919091909150558260000180549050836001016000848152602001908152602001600020819055506001905062000418565b600090505b92915050565b600080836001016000848152602001908152602001600020541415905092915050565b828054600181600116156101000203166002900490600052602060002090601f016020900481019282620004795760008555620004c5565b82601f106200049457805160ff1916838001178555620004c5565b82800160010185558215620004c5579182015b82811115620004c4578251825591602001919060010190620004a7565b5b509050620004d49190620004d8565b5090565b5b80821115620004f3576000816000905550600101620004d9565b5090565b6110b980620005076000396000f3fe608060405234801561001057600080fd5b50600436106100f55760003560e01c80637a997ab711610097578063a217fddf11610066578063a217fddf146103e3578063ca15c87314610401578063d0679d3414610443578063d547741f146104a7576100f5565b80637a997ab7146102e15780639010d07c146102ff57806391d14854146103615780639e1a4d19146103c5576100f5565b806336568abe116100d357806336568abe1461020d57806346c198f61461025b57806362239cde1461028f57806375b238fc146102c3576100f5565b806306fdde03146100fa578063248a9ca31461017d5780632f2ff15d146101bf575b600080fd5b6101026104f5565b6040518080602001828103825283818151815260200191508051906020019080838360005b83811015610142578082015181840152602081019050610127565b50505050905090810190601f16801561016f5780820380516001836020036101000a031916815260200191505b509250505060405180910390f35b6101a96004803603602081101561019357600080fd5b8101908080359060200190929190505050610597565b6040518082815260200191505060405180910390f35b61020b600480360360408110156101d557600080fd5b8101908080359060200190929190803573ffffffffffffffffffffffffffffffffffffffff1690602001909291905050506105b6565b005b6102596004803603604081101561022357600080fd5b8101908080359060200190929190803573ffffffffffffffffffffffffffffffffffffffff16906020019092919050505061063f565b005b6102636106d8565b604051808273ffffffffffffffffffffffffffffffffffffffff16815260200191505060405180910390f35b610297610702565b604051808273ffffffffffffffffffffffffffffffffffffffff16815260200191505060405180910390f35b6102cb610728565b6040518082815260200191505060405180910390f35b6102e961074c565b6040518082815260200191505060405180910390f35b6103356004803603604081101561031557600080fd5b810190808035906020019092919080359060200190929190505050610770565b604051808273ffffffffffffffffffffffffffffffffffffffff16815260200191505060405180910390f35b6103ad6004803603604081101561037757600080fd5b8101908080359060200190929190803573ffffffffffffffffffffffffffffffffffffffff1690602001909291905050506107a1565b60405180821515815260200191505060405180910390f35b6103cd6107d2565b6040518082815260200191505060405180910390f35b6103eb61089d565b6040518082815260200191505060405180910390f35b61042d6004803603602081101561041757600080fd5b81019080803590602001909291905050506108a4565b6040518082815260200191505060405180910390f35b61048f6004803603604081101561045957600080fd5b81019080803573ffffffffffffffffffffffffffffffffffffffff169060200190929190803590602001909291905050506108ca565b60405180821515815260200191505060405180910390f35b6104f3600480360360408110156104bd57600080fd5b8101908080359060200190929190803573ffffffffffffffffffffffffffffffffffffffff169060200190929190505050610b4e565b005b606060028054600181600116156101000203166002900480601f01602080910402602001604051908101604052809291908181526020018280546001816001161561010002031660029004801561058d5780601f106105625761010080835404028352916020019161058d565b820191906000526020600020905b81548152906001019060200180831161057057829003601f168201915b5050505050905090565b6000806000838152602001908152602001600020600201549050919050565b6105dc600080848152602001908152602001600020600201546105d7610c07565b6107a1565b610631576040517f08c379a000000000000000000000000000000000000000000000000000000000815260040180806020018281038252602f815260200180610ff6602f913960400191505060405180910390fd5b61063b8282610c0f565b5050565b610647610c07565b73ffffffffffffffffffffffffffffffffffffffff168173ffffffffffffffffffffffffffffffffffffffff16146106ca576040517f08c379a000000000000000000000000000000000000000000000000000000000815260040180806020018281038252602f815260200180611055602f913960400191505060405180910390fd5b6106d48282610ca2565b5050565b6000600360009054906101000a900473ffffffffffffffffffffffffffffffffffffffff16905090565b600160009054906101000a900473ffffffffffffffffffffffffffffffffffffffff1681565b7fa49807205ce4d355092ef5a8a18f56e8913cf4a201fbe287825b095693c2177581565b7fdc72ed553f2544c34465af23b847953efeb813428162d767f9ba5f4013be676081565b600061079982600080868152602001908152602001600020600001610d3590919063ffffffff16565b905092915050565b60006107ca82600080868152602001908152602001600020600001610d4f90919063ffffffff16565b905092915050565b6000600160009054906101000a900473ffffffffffffffffffffffffffffffffffffffff1673ffffffffffffffffffffffffffffffffffffffff166370a08231306040518263ffffffff1660e01b8152600401808273ffffffffffffffffffffffffffffffffffffffff16815260200191505060206040518083038186803b15801561085d57600080fd5b505afa158015610871573d6000803e3d6000fd5b505050506040513d602081101561088757600080fd5b8101908080519060200190929190505050905090565b6000801b81565b60006108c3600080848152602001908152602001600020600001610d7f565b9050919050565b60006108f67fa49807205ce4d355092ef5a8a18f56e8913cf4a201fbe287825b095693c21775336107a1565b610968576040517f08c379a00000000000000000000000000000000000000000000000000000000081526004018080602001828103825260138152602001807f43616c6c6572206973206e6f742061646d696e0000000000000000000000000081525060200191505060405180910390fd5b6109927fdc72ed553f2544c34465af23b847953efeb813428162d767f9ba5f4013be6760846107a1565b610a04576040517f08c379a00000000000000000000000000000000000000000000000000000000081526004018080602001828103825260158152602001807f546f206973206e6f742077686974656c6973746564000000000000000000000081525060200191505060405180910390fd5b600160009054906101000a900473ffffffffffffffffffffffffffffffffffffffff1673ffffffffffffffffffffffffffffffffffffffff1663a9059cbb84846040518363ffffffff1660e01b8152600401808373ffffffffffffffffffffffffffffffffffffffff16815260200182815260200192505050602060405180830381600087803b158015610a9757600080fd5b505af1158015610aab573d6000803e3d6000fd5b505050506040513d6020811015610ac157600080fd5b8101908080519060200190929190505050610b44576040517f08c379a000000000000000000000000000000000000000000000000000000000815260040180806020018281038252600d8152602001807f6572726f722073656e64696e670000000000000000000000000000000000000081525060200191505060405180910390fd5b6001905092915050565b610b7460008084815260200190815260200160002060020154610b6f610c07565b6107a1565b610bc9576040517f08c379a00000000000000000000000000000000000000000000000000000000081526004018080602001828103825260308152602001806110256030913960400191505060405180910390fd5b610bd38282610ca2565b5050565b6000610bff836000018373ffffffffffffffffffffffffffffffffffffffff1660001b610d94565b905092915050565b600033905090565b610c3681600080858152602001908152602001600020600001610bd790919063ffffffff16565b15610c9e57610c43610c07565b73ffffffffffffffffffffffffffffffffffffffff168173ffffffffffffffffffffffffffffffffffffffff16837f2f8788117e7eff1d82e926ec794901d17c78024a50270940304540a733656f0d60405160405180910390a45b5050565b610cc981600080858152602001908152602001600020600001610e0490919063ffffffff16565b15610d3157610cd6610c07565b73ffffffffffffffffffffffffffffffffffffffff168173ffffffffffffffffffffffffffffffffffffffff16837ff6391f5c32d9c69d2a47ea670b442974b53935d1edc7fd64eb21e047a839171b60405160405180910390a45b5050565b6000610d448360000183610e34565b60001c905092915050565b6000610d77836000018373ffffffffffffffffffffffffffffffffffffffff1660001b610eb7565b905092915050565b6000610d8d82600001610eda565b9050919050565b6000610da08383610eb7565b610df9578260000182908060018154018082558091505060019003906000526020600020016000909190919091505582600001805490508360010160008481526020019081526020016000208190555060019050610dfe565b600090505b92915050565b6000610e2c836000018373ffffffffffffffffffffffffffffffffffffffff1660001b610eeb565b905092915050565b600081836000018054905011610e95576040517f08c379a0000000000000000000000000000000000000000000000000000000008152600401808060200182810382526022815260200180610fd46022913960400191505060405180910390fd5b826000018281548110610ea457fe5b9060005260206000200154905092915050565b600080836001016000848152602001908152602001600020541415905092915050565b600081600001805490509050919050565b60008083600101600084815260200190815260200160002054905060008114610fc75760006001820390506000600186600001805490500390506000866000018281548110610f3657fe5b9060005260206000200154905080876000018481548110610f5357fe5b9060005260206000200181905550600183018760010160008381526020019081526020016000208190555086600001805480610f8b57fe5b60019003818190600052602060002001600090559055866001016000878152602001908152602001600020600090556001945050505050610fcd565b60009150505b9291505056fe456e756d657261626c655365743a20696e646578206f7574206f6620626f756e6473416363657373436f6e74726f6c3a2073656e646572206d75737420626520616e2061646d696e20746f206772616e74416363657373436f6e74726f6c3a2073656e646572206d75737420626520616e2061646d696e20746f207265766f6b65416363657373436f6e74726f6c3a2063616e206f6e6c792072656e6f756e636520726f6c657320666f722073656c66a264697066735822122068291a61d3117acca8a10d603a14f472fb125f3d81b91100f9637e4b6d9874df64736f6c63430007050033",
  "immutableReferences": {},
  "source": "pragma solidity 0.7.5;\r\n\r\nimport '@openzeppelin/contracts/token/ERC20/IERC20.sol';\r\nimport \"@openzeppelin/contracts/access/AccessControl.sol\";\r\n\r\ncontract Node is AccessControl {\r\n\r\n  bytes32 public constant ADMIN_ROLE = keccak256(\"ADMIN_ROLE\");\r\n  bytes32 public constant WHITELIST_ROLE = keccak256(\"WHITELIST_ROLE\");\r\n\r\n  IERC20 public tokenEFD;\r\n  string private _name;\r\n  address private _headNode;\r\n\r\n  constructor(address tokenEFDAddress_, address admin_, string memory name_) public {\r\n    _name = name_;\r\n    tokenEFD = IERC20(tokenEFDAddress_);\r\n    _headNode = msg.sender;\r\n    \r\n    _setupRole(ADMIN_ROLE, admin_);\r\n    _setRoleAdmin(WHITELIST_ROLE, ADMIN_ROLE);  //Quem controla WHITELIST_ROLE é quem esta em ADMIN_ROLE\r\n    _setupRole(DEFAULT_ADMIN_ROLE, msg.sender);  //msg.sender (Headnode) pode adicionar / remover admins\r\n  }\r\n\r\n  function name() public view returns (string memory) {\r\n    return _name;\r\n  }\r\n\r\n  function headNode() public view returns (address) {\r\n    return _headNode;\r\n  }\r\n\r\n  function tokenBalance() public view returns (uint256) {\r\n    return tokenEFD.balanceOf(address(this));\r\n  }\r\n\r\n  //grantRole(WHITELIST_ROLE, _account);  //Only who are in ADMIN_ROLE\r\n\r\n  //Send token from Node \r\n  function send(address _to, uint256 _value) public returns (bool)  {\r\n    require(hasRole(ADMIN_ROLE, msg.sender), \"Caller is not admin\");\r\n    require(hasRole(WHITELIST_ROLE, _to), \"To is not whitelisted\");\r\n    require (tokenEFD.transfer (_to, _value), \"error sending\");\r\n    return true;\r\n  }\r\n\r\n}\r\n",
  "sourcePath": "C:\\RSK\\ELFEDERAL\\EFD\\contracts\\Node.sol",
  "compiler": {
    "name": "solc",
    "version": "0.7.5+commit.eb77ed08.Emscripten.clang"
  },
  "schemaVersion": "3.3.2",
  "updatedAt": "2020-12-09T03:28:09.358Z",
  "networkType": "ethereum",
  "devdoc": {
    "kind": "dev",
    "methods": {
      "getRoleAdmin(bytes32)": {
        "details": "Returns the admin role that controls `role`. See {grantRole} and {revokeRole}. To change a role's admin, use {_setRoleAdmin}."
      },
      "getRoleMember(bytes32,uint256)": {
        "details": "Returns one of the accounts that have `role`. `index` must be a value between 0 and {getRoleMemberCount}, non-inclusive. Role bearers are not sorted in any particular way, and their ordering may change at any point. WARNING: When using {getRoleMember} and {getRoleMemberCount}, make sure you perform all queries on the same block. See the following https://forum.openzeppelin.com/t/iterating-over-elements-on-enumerableset-in-openzeppelin-contracts/2296[forum post] for more information."
      },
      "getRoleMemberCount(bytes32)": {
        "details": "Returns the number of accounts that have `role`. Can be used together with {getRoleMember} to enumerate all bearers of a role."
      },
      "grantRole(bytes32,address)": {
        "details": "Grants `role` to `account`. If `account` had not been already granted `role`, emits a {RoleGranted} event. Requirements: - the caller must have ``role``'s admin role."
      },
      "hasRole(bytes32,address)": {
        "details": "Returns `true` if `account` has been granted `role`."
      },
      "renounceRole(bytes32,address)": {
        "details": "Revokes `role` from the calling account. Roles are often managed via {grantRole} and {revokeRole}: this function's purpose is to provide a mechanism for accounts to lose their privileges if they are compromised (such as when a trusted device is misplaced). If the calling account had been granted `role`, emits a {RoleRevoked} event. Requirements: - the caller must be `account`."
      },
      "revokeRole(bytes32,address)": {
        "details": "Revokes `role` from `account`. If `account` had been granted `role`, emits a {RoleRevoked} event. Requirements: - the caller must have ``role``'s admin role."
      }
    },
    "version": 1
  },
  "userdoc": {
    "kind": "user",
    "methods": {},
    "version": 1
  }
}